{
  "contractName": "Bet",
  "abi": [
    {
      "constant": false,
      "inputs": [
        {
          "name": "myid",
          "type": "bytes32"
        },
        {
          "name": "result",
          "type": "string"
        }
      ],
      "name": "__callback",
      "outputs": [],
      "payable": false,
      "stateMutability": "nonpayable",
      "type": "function"
    },
    {
      "constant": false,
      "inputs": [
        {
          "name": "myid",
          "type": "bytes32"
        },
        {
          "name": "result",
          "type": "string"
        },
        {
          "name": "proof",
          "type": "bytes"
        }
      ],
      "name": "__callback",
      "outputs": [],
      "payable": false,
      "stateMutability": "nonpayable",
      "type": "function"
    },
    {
      "constant": false,
      "inputs": [],
      "name": "declare",
      "outputs": [],
      "payable": true,
      "stateMutability": "payable",
      "type": "function"
    },
    {
      "constant": true,
      "inputs": [
        {
          "name": "",
          "type": "bytes32"
        }
      ],
      "name": "participants",
      "outputs": [
        {
          "name": "",
          "type": "int256"
        }
      ],
      "payable": false,
      "stateMutability": "view",
      "type": "function"
    },
    {
      "constant": false,
      "inputs": [
        {
          "name": "_username",
          "type": "bytes32"
        },
        {
          "name": "_amount",
          "type": "int256"
        }
      ],
      "name": "placeBet",
      "outputs": [],
      "payable": false,
      "stateMutability": "nonpayable",
      "type": "function"
    },
    {
      "constant": true,
      "inputs": [
        {
          "name": "_username",
          "type": "bytes32"
        }
      ],
      "name": "getParticipantAmount",
      "outputs": [
        {
          "name": "",
          "type": "int256"
        }
      ],
      "payable": false,
      "stateMutability": "view",
      "type": "function"
    },
    {
      "inputs": [
        {
          "name": "_bettingAddr",
          "type": "address"
        }
      ],
      "payable": false,
      "stateMutability": "view",
      "type": "function",
      "constant": true,
      "name": "winner",
      "outputs": [
        {
          "name": "",
          "type": "bytes32"
        }
      ]
    },
    {
      "anonymous": false,
      "inputs": [
        {
          "indexed": true,
          "name": "_bettingAddr",
          "type": "address"
        },
        {
          "indexed": true,
          "name": "_winner",
          "type": "bytes32"
        }
      ],
      "name": "LogWinner",
      "type": "constructor",
      "payable": false,
      "stateMutability": "nonpayable"
    },
    {
      "anonymous": false,
      "inputs": [
        {
          "indexed": true,
          "name": "_contractAddress",
          "type": "address"
        },
        {
          "indexed": true,
          "name": "_winner",
          "type": "bytes32"
        }
      ],
      "name": "LogWinner",
      "type": "event"
    }
  ],
  "bytecode": "0x6060604052341561000f57600080fd5b60405160208061183d8339810160405280805190602001909190505080600560006101000a81548173ffffffffffffffffffffffffffffffffffffffff021916908373ffffffffffffffffffffffffffffffffffffffff160217905550736f485c8bf6fc43ea212e93bbf8ce046c7f1cb4756000806101000a81548173ffffffffffffffffffffffffffffffffffffffff021916908373ffffffffffffffffffffffffffffffffffffffff1602179055505061176d806100d06000396000f300606060405260043610610083576000357c0100000000000000000000000000000000000000000000000000000000900463ffffffff16806327dc297e1461008857806338bbfa50146100f25780634ccde6881461019f578063653e0f7f146101a95780636e643a95146101e45780637c3b9d9914610214578063dfbf53ae1461024f575b600080fd5b341561009357600080fd5b6100f060048080356000191690602001909190803590602001908201803590602001908080601f01602080910402602001604051908101604052809392919081815260200183838082843782019150505050505091905050610280565b005b34156100fd57600080fd5b61019d60048080356000191690602001909190803590602001908201803590602001908080601f0160208091040260200160405190810160405280939291908181526020018383808284378201915050505050509190803590602001908201803590602001908080601f016020809104026020016040519081016040528093929190818152602001838380828437820191505050505050919050506102df565b005b6101a76102e4565b005b34156101b457600080fd5b6101ce600480803560001916906020019091905050610408565b6040518082815260200191505060405180910390f35b34156101ef57600080fd5b610212600480803560001916906020019091908035906020019091905050610420565b005b341561021f57600080fd5b610239600480803560001916906020019091905050610473565b6040518082815260200191505060405180910390f35b341561025a57600080fd5b610262610498565b60405180826000191660001916815260200191505060405180910390f35b61028861049e565b73ffffffffffffffffffffffffffffffffffffffff163373ffffffffffffffffffffffffffffffffffffffff161415156102c157600080fd5b6102ca816107b4565b6006819055506102db6006546107c8565b5050565b505050565b600560009054906101000a900473ffffffffffffffffffffffffffffffffffffffff1673ffffffffffffffffffffffffffffffffffffffff163373ffffffffffffffffffffffffffffffffffffffff1614151561034057600080fd5b6104056040805190810160405280600381526020017f55524c0000000000000000000000000000000000000000000000000000000000815250608060405190810160405280604e81526020017f6a736f6e2868747470733a2f2f6170692e636f696e6465736b2e636f6d2f763181526020017f2f6270692f63757272656e7470726963652f696e722e6a736f6e292e6270692e81526020017f494e522e726174655f666c6f6174000000000000000000000000000000000000815250624c4b40610918565b50565b60086020528060005260406000206000915090505481565b8060086000846000191660001916815260200190815260200160002081905550600980548060010182816104549190611637565b9160005260206000209001600084909190915090600019169055505050565b6000600860008360001916600019168152602001908152602001600020549050919050565b60075481565b6000806000809054906101000a900473ffffffffffffffffffffffffffffffffffffffff1673ffffffffffffffffffffffffffffffffffffffff16148061050e5750600061050c6000809054906101000a900473ffffffffffffffffffffffffffffffffffffffff16610e68565b145b1561051f5761051d6000610e73565b505b6000809054906101000a900473ffffffffffffffffffffffffffffffffffffffff1673ffffffffffffffffffffffffffffffffffffffff166338cc48316000604051602001526040518163ffffffff167c0100000000000000000000000000000000000000000000000000000000028152600401602060405180830381600087803b15156105ac57600080fd5b6102c65a03f115156105bd57600080fd5b5050506040518051905073ffffffffffffffffffffffffffffffffffffffff16600160009054906101000a900473ffffffffffffffffffffffffffffffffffffffff1673ffffffffffffffffffffffffffffffffffffffff16141515610706576000809054906101000a900473ffffffffffffffffffffffffffffffffffffffff1673ffffffffffffffffffffffffffffffffffffffff166338cc48316000604051602001526040518163ffffffff167c0100000000000000000000000000000000000000000000000000000000028152600401602060405180830381600087803b15156106aa57600080fd5b6102c65a03f115156106bb57600080fd5b50505060405180519050600160006101000a81548173ffffffffffffffffffffffffffffffffffffffff021916908373ffffffffffffffffffffffffffffffffffffffff1602179055505b600160009054906101000a900473ffffffffffffffffffffffffffffffffffffffff1673ffffffffffffffffffffffffffffffffffffffff1663c281d19e6000604051602001526040518163ffffffff167c0100000000000000000000000000000000000000000000000000000000028152600401602060405180830381600087803b151561079457600080fd5b6102c65a03f115156107a557600080fd5b50505060405180519050905090565b60006107c1826000611304565b9050919050565b6000806000600960008154811015156107dd57fe5b90600052602060002090015460078160001916905550610834600860006009600081548110151561080a57fe5b906000526020600020900154600019166000191681526020019081526020016000205485036115fe565b9250600191505b6009805490508210156108c8576108886008600060098581548110151561085e57fe5b906000526020600020900154600019166000191681526020019081526020016000205485036115fe565b9050808313156108bb576009828154811015156108a157fe5b906000526020600020900154600781600019169055508092505b818060010192505061083b565b600754600019163073ffffffffffffffffffffffffffffffffffffffff167fd187ce82df032d5ffc5c7990fe887af2f29e753c0ddce448f9034e7e8232065a60405160405180910390a350505050565b60008060008060009054906101000a900473ffffffffffffffffffffffffffffffffffffffff1673ffffffffffffffffffffffffffffffffffffffff16148061098a575060006109886000809054906101000a900473ffffffffffffffffffffffffffffffffffffffff16610e68565b145b1561099b576109996000610e73565b505b6000809054906101000a900473ffffffffffffffffffffffffffffffffffffffff1673ffffffffffffffffffffffffffffffffffffffff166338cc48316000604051602001526040518163ffffffff167c0100000000000000000000000000000000000000000000000000000000028152600401602060405180830381600087803b1515610a2857600080fd5b6102c65a03f11515610a3957600080fd5b5050506040518051905073ffffffffffffffffffffffffffffffffffffffff16600160009054906101000a900473ffffffffffffffffffffffffffffffffffffffff1673ffffffffffffffffffffffffffffffffffffffff16141515610b82576000809054906101000a900473ffffffffffffffffffffffffffffffffffffffff1673ffffffffffffffffffffffffffffffffffffffff166338cc48316000604051602001526040518163ffffffff167c0100000000000000000000000000000000000000000000000000000000028152600401602060405180830381600087803b1515610b2657600080fd5b6102c65a03f11515610b3757600080fd5b50505060405180519050600160006101000a81548173ffffffffffffffffffffffffffffffffffffffff021916908373ffffffffffffffffffffffffffffffffffffffff1602179055505b600160009054906101000a900473ffffffffffffffffffffffffffffffffffffffff1673ffffffffffffffffffffffffffffffffffffffff16632ef3accc86856000604051602001526040518363ffffffff167c01000000000000000000000000000000000000000000000000000000000281526004018080602001838152602001828103825284818151815260200191508051906020019080838360005b83811015610c3c578082015181840152602081019050610c21565b50505050905090810190601f168015610c695780820380516001836020036101000a031916815260200191505b509350505050602060405180830381600087803b1515610c8857600080fd5b6102c65a03f11515610c9957600080fd5b505050604051805190509050823a02670de0b6b3a764000001811115610cc55760006001029150610e60565b600160009054906101000a900473ffffffffffffffffffffffffffffffffffffffff1673ffffffffffffffffffffffffffffffffffffffff1663c51be90f8260008888886000604051602001526040518663ffffffff167c0100000000000000000000000000000000000000000000000000000000028152600401808581526020018060200180602001848152602001838103835286818151815260200191508051906020019080838360005b83811015610d8d578082015181840152602081019050610d72565b50505050905090810190601f168015610dba5780820380516001836020036101000a031916815260200191505b50838103825285818151815260200191508051906020019080838360005b83811015610df3578082015181840152602081019050610dd8565b50505050905090810190601f168015610e205780820380516001836020036101000a031916815260200191505b5096505050505050506020604051808303818588803b1515610e4157600080fd5b6125ee5a03f11515610e5257600080fd5b505050506040518051905091505b509392505050565b6000813b9050919050565b600080610e93731d3b2638a7cc9f2cb3d298a3da7a90b67e5506ed610e68565b1115610f3457731d3b2638a7cc9f2cb3d298a3da7a90b67e5506ed6000806101000a81548173ffffffffffffffffffffffffffffffffffffffff021916908373ffffffffffffffffffffffffffffffffffffffff160217905550610f2b6040805190810160405280600b81526020017f6574685f6d61696e6e657400000000000000000000000000000000000000000081525061161d565b600190506112ff565b6000610f5373c03a2615d5efaf5f49f60b7bb6583eaec212fdf1610e68565b1115610ff45773c03a2615d5efaf5f49f60b7bb6583eaec212fdf16000806101000a81548173ffffffffffffffffffffffffffffffffffffffff021916908373ffffffffffffffffffffffffffffffffffffffff160217905550610feb6040805190810160405280600c81526020017f6574685f726f707374656e33000000000000000000000000000000000000000081525061161d565b600190506112ff565b600061101373b7a07bcf2ba2f2703b24c0691b5278999c59ac7e610e68565b11156110b45773b7a07bcf2ba2f2703b24c0691b5278999c59ac7e6000806101000a81548173ffffffffffffffffffffffffffffffffffffffff021916908373ffffffffffffffffffffffffffffffffffffffff1602179055506110ab6040805190810160405280600981526020017f6574685f6b6f76616e000000000000000000000000000000000000000000000081525061161d565b600190506112ff565b60006110d373146500cfd35b22e4a392fe0adc06de1a1368ed48610e68565b11156111745773146500cfd35b22e4a392fe0adc06de1a1368ed486000806101000a81548173ffffffffffffffffffffffffffffffffffffffff021916908373ffffffffffffffffffffffffffffffffffffffff16021790555061116b6040805190810160405280600b81526020017f6574685f72696e6b65627900000000000000000000000000000000000000000081525061161d565b600190506112ff565b6000611193736f485c8bf6fc43ea212e93bbf8ce046c7f1cb475610e68565b11156111f657736f485c8bf6fc43ea212e93bbf8ce046c7f1cb4756000806101000a81548173ffffffffffffffffffffffffffffffffffffffff021916908373ffffffffffffffffffffffffffffffffffffffff160217905550600190506112ff565b60006112157320e12a1f859b3feae5fb2a0a32c18f5a65555bbf610e68565b1115611278577320e12a1f859b3feae5fb2a0a32c18f5a65555bbf6000806101000a81548173ffffffffffffffffffffffffffffffffffffffff021916908373ffffffffffffffffffffffffffffffffffffffff160217905550600190506112ff565b60006112977351efaf4c8b3c9afbd5ab9f4bbc82784ab6ef8faa610e68565b11156112fa577351efaf4c8b3c9afbd5ab9f4bbc82784ab6ef8faa6000806101000a81548173ffffffffffffffffffffffffffffffffffffffff021916908373ffffffffffffffffffffffffffffffffffffffff160217905550600190506112ff565b600090505b919050565b600061130e611663565b60008060008693506000925060009150600090505b83518110156115df5760307f010000000000000000000000000000000000000000000000000000000000000002848281518110151561135e57fe5b9060200101517f010000000000000000000000000000000000000000000000000000000000000090047f0100000000000000000000000000000000000000000000000000000000000000027effffffffffffffffffffffffffffffffffffffffffffffffffffffffffffff191610158015611476575060397f010000000000000000000000000000000000000000000000000000000000000002848281518110151561140657fe5b9060200101517f010000000000000000000000000000000000000000000000000000000000000090047f0100000000000000000000000000000000000000000000000000000000000000027effffffffffffffffffffffffffffffffffffffffffffffffffffffffffffff191611155b1561152757811561149957600086141561148f576115df565b8580600190039650505b600a83029250603084828151811015156114af57fe5b9060200101517f010000000000000000000000000000000000000000000000000000000000000090047f0100000000000000000000000000000000000000000000000000000000000000027f0100000000000000000000000000000000000000000000000000000000000000900403830192506115d2565b602e7f010000000000000000000000000000000000000000000000000000000000000002848281518110151561155957fe5b9060200101517f010000000000000000000000000000000000000000000000000000000000000090047f0100000000000000000000000000000000000000000000000000000000000000027effffffffffffffffffffffffffffffffffffffffffffffffffffffffffffff191614156115d157600191505b5b8080600101915050611323565b60008611156115f15785600a0a830292505b8294505050505092915050565b6000808212151561161157819050611618565b8160000390505b919050565b8060029080519060200190611633929190611677565b5050565b81548183558181151161165e5781836000526020600020918201910161165d91906116f7565b5b505050565b602060405190810160405280600081525090565b828054600181600116156101000203166002900490600052602060002090601f016020900481019282601f106116b857805160ff19168380011785556116e6565b828001600101855582156116e6579182015b828111156116e55782518255916020019190600101906116ca565b5b5090506116f3919061171c565b5090565b61171991905b808211156117155760008160009055506001016116fd565b5090565b90565b61173e91905b8082111561173a576000816000905550600101611722565b5090565b905600a165627a7a7230582037f43ce43b8c4a18fdb0be01f50bffcb6100eb22e40f0d485d44ac22d2e592ef0029",
  "source": "pragma solidity ^0.4.15; \nimport \"./lib/oraclizeAPI.sol\";\n\ncontract Bet is usingOraclize {\n    \n    address private owner;\n    int internal marketPrice;\n    bytes32 public winner;\n    mapping(bytes32 => int) public participants;\n    bytes32[] usernames; \n    \n    event LogWinner(address indexed _contractAddress, bytes32 indexed _winner);\n\n    modifier onlyOwner() {\n        require(msg.sender == owner);\n        _;\n    }\n    function Bet(address _bettingAddr) {\n        owner = _bettingAddr;\n        OAR = OraclizeAddrResolverI(0x6f485C8BF6fc43eA212E93BBF8ce046C7f1cb475);\n        \n    }\n\n    function placeBet(bytes32 _username, int _amount) public  {\n        participants[_username] = _amount;\n        usernames.push(_username);\n    }\n\n    function getParticipantAmount(bytes32 _username) constant returns(int) {\n        return participants[_username];\n    }\n    \n    function __callback(bytes32 myid, string result) {\n        if (msg.sender != oraclize_cbAddress()) throw;\n        marketPrice = int (parseInt(result));\n        resolve(marketPrice);\n    }\n    \n    function abs(int n) internal constant returns (int) {\n        if(n >= 0) return n;\n        return -n;\n    }\n    \n    function resolve(int _marketPrice) internal {\n       // resolve algorithm\n       winner = usernames[0];\n       int winnerValue = abs(_marketPrice - participants[usernames[0]]);\n       for(uint i=1; i < usernames.length; i++) {\n               int difference = abs(_marketPrice - participants[usernames[i]]);\n               if(winnerValue > difference) {\n                   winner = usernames[i];\n                   winnerValue = difference;\n               }          \n       }\n       LogWinner(this, winner);\n    }\n    \n    function declare() public onlyOwner payable {\n        oraclize_query(\"URL\", \"json(https://api.coindesk.com/v1/bpi/currentprice/inr.json).bpi.INR.rate_float\",5000000);\n    }\n    \n    \n}\n\n",
  "sourcePath": "/home/subhod/workspace/ethereum/betting-contract/contracts/Bet.sol",
  "compiler": {
    "name": "solc",
    "version": "0.4.18+commit.9cf6e910.Emscripten.clang"
  },
  "schemaVersion": "1.0.1",
  "updatedAt": "2017-11-08T13:22:44.644Z"
}