{
  "contractName": "Bet",
  "abi": [
    {
      "constant": false,
      "inputs": [
        {
          "name": "myid",
          "type": "bytes32"
        },
        {
          "name": "result",
          "type": "string"
        }
      ],
      "name": "__callback",
      "outputs": [],
      "payable": false,
      "stateMutability": "nonpayable",
      "type": "function"
    },
    {
      "constant": false,
      "inputs": [
        {
          "name": "myid",
          "type": "bytes32"
        },
        {
          "name": "result",
          "type": "string"
        },
        {
          "name": "proof",
          "type": "bytes"
        }
      ],
      "name": "__callback",
      "outputs": [],
      "payable": false,
      "stateMutability": "nonpayable",
      "type": "function"
    },
    {
      "constant": false,
      "inputs": [],
      "name": "declare",
      "outputs": [],
      "payable": false,
      "stateMutability": "nonpayable",
      "type": "function"
    },
    {
      "constant": true,
      "inputs": [
        {
          "name": "",
          "type": "bytes32"
        }
      ],
      "name": "participants",
      "outputs": [
        {
          "name": "",
          "type": "int256"
        }
      ],
      "payable": false,
      "stateMutability": "view",
      "type": "function"
    },
    {
      "constant": false,
      "inputs": [
        {
          "name": "_username",
          "type": "bytes32"
        },
        {
          "name": "_amount",
          "type": "int256"
        }
      ],
      "name": "placeBet",
      "outputs": [],
      "payable": false,
      "stateMutability": "nonpayable",
      "type": "function"
    },
    {
      "constant": true,
      "inputs": [
        {
          "name": "_username",
          "type": "bytes32"
        }
      ],
      "name": "getParticipantAmount",
      "outputs": [
        {
          "name": "",
          "type": "int256"
        }
      ],
      "payable": false,
      "stateMutability": "view",
      "type": "function"
    },
    {
      "inputs": [
        {
          "name": "_bettingAddr",
          "type": "address"
        }
      ],
      "payable": false,
      "stateMutability": "view",
      "type": "function",
      "constant": true,
      "name": "winner",
      "outputs": [
        {
          "name": "",
          "type": "bytes32"
        }
      ]
    },
    {
      "anonymous": false,
      "inputs": [
        {
          "indexed": true,
          "name": "_bettingAddr",
          "type": "address"
        },
        {
          "indexed": true,
          "name": "_winner",
          "type": "bytes32"
        }
      ],
      "name": "LogWinner",
      "type": "constructor",
      "payable": false,
      "stateMutability": "nonpayable"
    },
    {
      "anonymous": false,
      "inputs": [
        {
          "indexed": true,
          "name": "_contractAddress",
          "type": "address"
        },
        {
          "indexed": true,
          "name": "_winner",
          "type": "bytes32"
        }
      ],
      "name": "LogWinner",
      "type": "event"
    }
  ],
  "bytecode": "0x6060604052341561000f57600080fd5b6040516020806117da8339810160405280805190602001909190505080600560006101000a81548173ffffffffffffffffffffffffffffffffffffffff021916908373ffffffffffffffffffffffffffffffffffffffff160217905550736f485c8bf6fc43ea212e93bbf8ce046c7f1cb4756000806101000a81548173ffffffffffffffffffffffffffffffffffffffff021916908373ffffffffffffffffffffffffffffffffffffffff1602179055505061170a806100d06000396000f300606060405260043610610083576000357c0100000000000000000000000000000000000000000000000000000000900463ffffffff16806327dc297e1461008857806338bbfa50146100f25780634ccde6881461019f578063653e0f7f146101b45780636e643a95146101ef5780637c3b9d991461021f578063dfbf53ae1461025a575b600080fd5b341561009357600080fd5b6100f060048080356000191690602001909190803590602001908201803590602001908080601f0160208091040260200160405190810160405280939291908181526020018383808284378201915050505050509190505061028b565b005b34156100fd57600080fd5b61019d60048080356000191690602001909190803590602001908201803590602001908080601f0160208091040260200160405190810160405280939291908181526020018383808284378201915050505050509190803590602001908201803590602001908080601f016020809104026020016040519081016040528093929190818152602001838380828437820191505050505050919050506102ea565b005b34156101aa57600080fd5b6101b26102ef565b005b34156101bf57600080fd5b6101d96004808035600019169060200190919050506103b3565b6040518082815260200191505060405180910390f35b34156101fa57600080fd5b61021d6004808035600019169060200190919080359060200190919050506103cb565b005b341561022a57600080fd5b61024460048080356000191690602001909190505061041e565b6040518082815260200191505060405180910390f35b341561026557600080fd5b61026d610443565b60405180826000191660001916815260200191505060405180910390f35b610293610449565b73ffffffffffffffffffffffffffffffffffffffff163373ffffffffffffffffffffffffffffffffffffffff161415156102cc57600080fd5b6102d58161075f565b6006819055506102e6600654610773565b5050565b505050565b6103b06040805190810160405280600381526020017f55524c0000000000000000000000000000000000000000000000000000000000815250608060405190810160405280604e81526020017f6a736f6e2868747470733a2f2f6170692e636f696e6465736b2e636f6d2f763181526020017f2f6270692f63757272656e7470726963652f696e722e6a736f6e292e6270692e81526020017f494e522e726174655f666c6f61740000000000000000000000000000000000008152506108c3565b50565b60086020528060005260406000206000915090505481565b8060086000846000191660001916815260200190815260200160002081905550600980548060010182816103ff91906115d4565b9160005260206000209001600084909190915090600019169055505050565b6000600860008360001916600019168152602001908152602001600020549050919050565b60075481565b6000806000809054906101000a900473ffffffffffffffffffffffffffffffffffffffff1673ffffffffffffffffffffffffffffffffffffffff1614806104b9575060006104b76000809054906101000a900473ffffffffffffffffffffffffffffffffffffffff16610e05565b145b156104ca576104c86000610e10565b505b6000809054906101000a900473ffffffffffffffffffffffffffffffffffffffff1673ffffffffffffffffffffffffffffffffffffffff166338cc48316000604051602001526040518163ffffffff167c0100000000000000000000000000000000000000000000000000000000028152600401602060405180830381600087803b151561055757600080fd5b6102c65a03f1151561056857600080fd5b5050506040518051905073ffffffffffffffffffffffffffffffffffffffff16600160009054906101000a900473ffffffffffffffffffffffffffffffffffffffff1673ffffffffffffffffffffffffffffffffffffffff161415156106b1576000809054906101000a900473ffffffffffffffffffffffffffffffffffffffff1673ffffffffffffffffffffffffffffffffffffffff166338cc48316000604051602001526040518163ffffffff167c0100000000000000000000000000000000000000000000000000000000028152600401602060405180830381600087803b151561065557600080fd5b6102c65a03f1151561066657600080fd5b50505060405180519050600160006101000a81548173ffffffffffffffffffffffffffffffffffffffff021916908373ffffffffffffffffffffffffffffffffffffffff1602179055505b600160009054906101000a900473ffffffffffffffffffffffffffffffffffffffff1673ffffffffffffffffffffffffffffffffffffffff1663c281d19e6000604051602001526040518163ffffffff167c0100000000000000000000000000000000000000000000000000000000028152600401602060405180830381600087803b151561073f57600080fd5b6102c65a03f1151561075057600080fd5b50505060405180519050905090565b600061076c8260006112a1565b9050919050565b60008060006009600081548110151561078857fe5b906000526020600020900154600781600019169055506107df60086000600960008154811015156107b557fe5b9060005260206000209001546000191660001916815260200190815260200160002054850361159b565b9250600191505b600980549050821015610873576108336008600060098581548110151561080957fe5b9060005260206000209001546000191660001916815260200190815260200160002054850361159b565b9050808313156108665760098281548110151561084c57fe5b906000526020600020900154600781600019169055508092505b81806001019250506107e6565b600754600019163073ffffffffffffffffffffffffffffffffffffffff167fd187ce82df032d5ffc5c7990fe887af2f29e753c0ddce448f9034e7e8232065a60405160405180910390a350505050565b60008060008060009054906101000a900473ffffffffffffffffffffffffffffffffffffffff1673ffffffffffffffffffffffffffffffffffffffff161480610935575060006109336000809054906101000a900473ffffffffffffffffffffffffffffffffffffffff16610e05565b145b15610946576109446000610e10565b505b6000809054906101000a900473ffffffffffffffffffffffffffffffffffffffff1673ffffffffffffffffffffffffffffffffffffffff166338cc48316000604051602001526040518163ffffffff167c0100000000000000000000000000000000000000000000000000000000028152600401602060405180830381600087803b15156109d357600080fd5b6102c65a03f115156109e457600080fd5b5050506040518051905073ffffffffffffffffffffffffffffffffffffffff16600160009054906101000a900473ffffffffffffffffffffffffffffffffffffffff1673ffffffffffffffffffffffffffffffffffffffff16141515610b2d576000809054906101000a900473ffffffffffffffffffffffffffffffffffffffff1673ffffffffffffffffffffffffffffffffffffffff166338cc48316000604051602001526040518163ffffffff167c0100000000000000000000000000000000000000000000000000000000028152600401602060405180830381600087803b1515610ad157600080fd5b6102c65a03f11515610ae257600080fd5b50505060405180519050600160006101000a81548173ffffffffffffffffffffffffffffffffffffffff021916908373ffffffffffffffffffffffffffffffffffffffff1602179055505b600160009054906101000a900473ffffffffffffffffffffffffffffffffffffffff1673ffffffffffffffffffffffffffffffffffffffff1663524f3889856000604051602001526040518263ffffffff167c01000000000000000000000000000000000000000000000000000000000281526004018080602001828103825283818151815260200191508051906020019080838360005b83811015610be0578082015181840152602081019050610bc5565b50505050905090810190601f168015610c0d5780820380516001836020036101000a031916815260200191505b5092505050602060405180830381600087803b1515610c2b57600080fd5b6102c65a03f11515610c3c57600080fd5b50505060405180519050905062030d403a02670de0b6b3a764000001811115610c6b5760006001029150610dfe565b600160009054906101000a900473ffffffffffffffffffffffffffffffffffffffff1673ffffffffffffffffffffffffffffffffffffffff1663adf59f9982600087876000604051602001526040518563ffffffff167c0100000000000000000000000000000000000000000000000000000000028152600401808481526020018060200180602001838103835285818151815260200191508051906020019080838360005b83811015610d2c578082015181840152602081019050610d11565b50505050905090810190601f168015610d595780820380516001836020036101000a031916815260200191505b50838103825284818151815260200191508051906020019080838360005b83811015610d92578082015181840152602081019050610d77565b50505050905090810190601f168015610dbf5780820380516001836020036101000a031916815260200191505b50955050505050506020604051808303818588803b1515610ddf57600080fd5b6125ee5a03f11515610df057600080fd5b505050506040518051905091505b5092915050565b6000813b9050919050565b600080610e30731d3b2638a7cc9f2cb3d298a3da7a90b67e5506ed610e05565b1115610ed157731d3b2638a7cc9f2cb3d298a3da7a90b67e5506ed6000806101000a81548173ffffffffffffffffffffffffffffffffffffffff021916908373ffffffffffffffffffffffffffffffffffffffff160217905550610ec86040805190810160405280600b81526020017f6574685f6d61696e6e65740000000000000000000000000000000000000000008152506115ba565b6001905061129c565b6000610ef073c03a2615d5efaf5f49f60b7bb6583eaec212fdf1610e05565b1115610f915773c03a2615d5efaf5f49f60b7bb6583eaec212fdf16000806101000a81548173ffffffffffffffffffffffffffffffffffffffff021916908373ffffffffffffffffffffffffffffffffffffffff160217905550610f886040805190810160405280600c81526020017f6574685f726f707374656e3300000000000000000000000000000000000000008152506115ba565b6001905061129c565b6000610fb073b7a07bcf2ba2f2703b24c0691b5278999c59ac7e610e05565b11156110515773b7a07bcf2ba2f2703b24c0691b5278999c59ac7e6000806101000a81548173ffffffffffffffffffffffffffffffffffffffff021916908373ffffffffffffffffffffffffffffffffffffffff1602179055506110486040805190810160405280600981526020017f6574685f6b6f76616e00000000000000000000000000000000000000000000008152506115ba565b6001905061129c565b600061107073146500cfd35b22e4a392fe0adc06de1a1368ed48610e05565b11156111115773146500cfd35b22e4a392fe0adc06de1a1368ed486000806101000a81548173ffffffffffffffffffffffffffffffffffffffff021916908373ffffffffffffffffffffffffffffffffffffffff1602179055506111086040805190810160405280600b81526020017f6574685f72696e6b6562790000000000000000000000000000000000000000008152506115ba565b6001905061129c565b6000611130736f485c8bf6fc43ea212e93bbf8ce046c7f1cb475610e05565b111561119357736f485c8bf6fc43ea212e93bbf8ce046c7f1cb4756000806101000a81548173ffffffffffffffffffffffffffffffffffffffff021916908373ffffffffffffffffffffffffffffffffffffffff1602179055506001905061129c565b60006111b27320e12a1f859b3feae5fb2a0a32c18f5a65555bbf610e05565b1115611215577320e12a1f859b3feae5fb2a0a32c18f5a65555bbf6000806101000a81548173ffffffffffffffffffffffffffffffffffffffff021916908373ffffffffffffffffffffffffffffffffffffffff1602179055506001905061129c565b60006112347351efaf4c8b3c9afbd5ab9f4bbc82784ab6ef8faa610e05565b1115611297577351efaf4c8b3c9afbd5ab9f4bbc82784ab6ef8faa6000806101000a81548173ffffffffffffffffffffffffffffffffffffffff021916908373ffffffffffffffffffffffffffffffffffffffff1602179055506001905061129c565b600090505b919050565b60006112ab611600565b60008060008693506000925060009150600090505b835181101561157c5760307f01000000000000000000000000000000000000000000000000000000000000000284828151811015156112fb57fe5b9060200101517f010000000000000000000000000000000000000000000000000000000000000090047f0100000000000000000000000000000000000000000000000000000000000000027effffffffffffffffffffffffffffffffffffffffffffffffffffffffffffff191610158015611413575060397f01000000000000000000000000000000000000000000000000000000000000000284828151811015156113a357fe5b9060200101517f010000000000000000000000000000000000000000000000000000000000000090047f0100000000000000000000000000000000000000000000000000000000000000027effffffffffffffffffffffffffffffffffffffffffffffffffffffffffffff191611155b156114c457811561143657600086141561142c5761157c565b8580600190039650505b600a830292506030848281518110151561144c57fe5b9060200101517f010000000000000000000000000000000000000000000000000000000000000090047f0100000000000000000000000000000000000000000000000000000000000000027f01000000000000000000000000000000000000000000000000000000000000009004038301925061156f565b602e7f01000000000000000000000000000000000000000000000000000000000000000284828151811015156114f657fe5b9060200101517f010000000000000000000000000000000000000000000000000000000000000090047f0100000000000000000000000000000000000000000000000000000000000000027effffffffffffffffffffffffffffffffffffffffffffffffffffffffffffff1916141561156e57600191505b5b80806001019150506112c0565b600086111561158e5785600a0a830292505b8294505050505092915050565b600080821215156115ae578190506115b5565b8160000390505b919050565b80600290805190602001906115d0929190611614565b5050565b8154818355818115116115fb578183600052602060002091820191016115fa9190611694565b5b505050565b602060405190810160405280600081525090565b828054600181600116156101000203166002900490600052602060002090601f016020900481019282601f1061165557805160ff1916838001178555611683565b82800160010185558215611683579182015b82811115611682578251825591602001919060010190611667565b5b50905061169091906116b9565b5090565b6116b691905b808211156116b257600081600090555060010161169a565b5090565b90565b6116db91905b808211156116d75760008160009055506001016116bf565b5090565b905600a165627a7a72305820dffbdf1c69d17b0c0785a5afe42fa0df13e30a6c3e168592c92925b0e50d353b0029",
  "source": "pragma solidity ^0.4.15; \nimport \"./lib/oraclizeAPI.sol\";\n\ncontract Bet is usingOraclize {\n    \n    address private owner;\n    int internal marketPrice;\n    bytes32 public winner;\n    mapping(bytes32 => int) public participants;\n    bytes32[] usernames; \n    \n    event LogWinner(address indexed _contractAddress, bytes32 indexed _winner);\n\n    modifier onlyOwner() {\n        require(msg.sender == owner);\n        _;\n    }\n    function Bet(address _bettingAddr) {\n        owner = _bettingAddr;\n        OAR = OraclizeAddrResolverI(0x6f485C8BF6fc43eA212E93BBF8ce046C7f1cb475);\n        \n    }\n\n    function placeBet(bytes32 _username, int _amount) public  {\n        participants[_username] = _amount;\n        usernames.push(_username);\n    }\n\n    function getParticipantAmount(bytes32 _username) constant returns(int) {\n        return participants[_username];\n    }\n    \n    function __callback(bytes32 myid, string result) {\n        if (msg.sender != oraclize_cbAddress()) throw;\n        marketPrice = int (parseInt(result));\n        resolve(marketPrice);\n    }\n    \n    function abs(int n) internal constant returns (int) {\n        if(n >= 0) return n;\n        return -n;\n    }\n    \n    function resolve(int _marketPrice) internal {\n       // resolve algorithm\n       winner = usernames[0];\n       int winnerValue = abs(_marketPrice - participants[usernames[0]]);\n       for(uint i=1; i < usernames.length; i++) {\n               int difference = abs(_marketPrice - participants[usernames[i]]);\n               if(winnerValue > difference) {\n                   winner = usernames[i];\n                   winnerValue = difference;\n               }          \n       }\n       LogWinner(this, winner);\n    }\n    \n    function declare() public  {\n        oraclize_query(\"URL\", \"json(https://api.coindesk.com/v1/bpi/currentprice/inr.json).bpi.INR.rate_float\");\n    }\n    \n    \n}\n\n",
  "sourcePath": "/home/subhod/workspace/ethereum/betting-contract/contracts/Bet.sol",
  "compiler": {
    "name": "solc",
    "version": "0.4.18+commit.9cf6e910.Emscripten.clang"
  },
  "schemaVersion": "1.0.1",
  "updatedAt": "2017-11-09T07:12:47.948Z"
}