{
  "contractName": "Bet",
  "abi": [
    {
      "constant": false,
      "inputs": [
        {
          "name": "myid",
          "type": "bytes32"
        },
        {
          "name": "result",
          "type": "string"
        }
      ],
      "name": "__callback",
      "outputs": [],
      "payable": false,
      "stateMutability": "nonpayable",
      "type": "function"
    },
    {
      "constant": false,
      "inputs": [],
      "name": "resolve",
      "outputs": [
        {
          "name": "",
          "type": "bytes32"
        }
      ],
      "payable": false,
      "stateMutability": "nonpayable",
      "type": "function"
    },
    {
      "constant": false,
      "inputs": [
        {
          "name": "myid",
          "type": "bytes32"
        },
        {
          "name": "result",
          "type": "string"
        },
        {
          "name": "proof",
          "type": "bytes"
        }
      ],
      "name": "__callback",
      "outputs": [],
      "payable": false,
      "stateMutability": "nonpayable",
      "type": "function"
    },
    {
      "constant": false,
      "inputs": [],
      "name": "declare",
      "outputs": [],
      "payable": false,
      "stateMutability": "nonpayable",
      "type": "function"
    },
    {
      "constant": true,
      "inputs": [
        {
          "name": "",
          "type": "bytes32"
        }
      ],
      "name": "participants",
      "outputs": [
        {
          "name": "",
          "type": "int256"
        }
      ],
      "payable": false,
      "stateMutability": "view",
      "type": "function"
    },
    {
      "constant": false,
      "inputs": [
        {
          "name": "_username",
          "type": "bytes32"
        },
        {
          "name": "_amount",
          "type": "int256"
        }
      ],
      "name": "placeBet",
      "outputs": [],
      "payable": false,
      "stateMutability": "nonpayable",
      "type": "function"
    },
    {
      "constant": true,
      "inputs": [
        {
          "name": "_username",
          "type": "bytes32"
        }
      ],
      "name": "getParticipantAmount",
      "outputs": [
        {
          "name": "",
          "type": "int256"
        }
      ],
      "payable": false,
      "stateMutability": "view",
      "type": "function"
    },
    {
      "constant": true,
      "inputs": [],
      "name": "winner",
      "outputs": [
        {
          "name": "",
          "type": "bytes32"
        }
      ],
      "payable": false,
      "stateMutability": "view",
      "type": "function"
    },
    {
      "inputs": [
        {
          "name": "_bettingAddr",
          "type": "address"
        }
      ],
      "payable": false,
      "stateMutability": "nonpayable",
      "type": "constructor"
    },
    {
      "anonymous": false,
      "inputs": [
        {
          "indexed": true,
          "name": "_marketPrice",
          "type": "int256"
        }
      ],
      "name": "LogMarketPrice",
      "type": "event"
    }
  ],
  "bytecode": "0x6060604052341561000f57600080fd5b6040516020806117fa8339810160405280805190602001909190505080600560006101000a81548173ffffffffffffffffffffffffffffffffffffffff021916908373ffffffffffffffffffffffffffffffffffffffff16021790555073bdbd4cb5d3dab6b6386fce4dd07137816bfd8b4e6000806101000a81548173ffffffffffffffffffffffffffffffffffffffff021916908373ffffffffffffffffffffffffffffffffffffffff1602179055505061172a806100d06000396000f30060606040526004361061008e576000357c0100000000000000000000000000000000000000000000000000000000900463ffffffff16806327dc297e146100935780632810e1d6146100fd57806338bbfa501461012e5780634ccde688146101db578063653e0f7f146101f05780636e643a951461022b5780637c3b9d991461025b578063dfbf53ae14610296575b600080fd5b341561009e57600080fd5b6100fb60048080356000191690602001909190803590602001908201803590602001908080601f016020809104026020016040519081016040528093929190818152602001838380828437820191505050505050919050506102c7565b005b341561010857600080fd5b61011061034a565b60405180826000191660001916815260200191505060405180910390f35b341561013957600080fd5b6101d960048080356000191690602001909190803590602001908201803590602001908080601f0160208091040260200160405190810160405280939291908181526020018383808284378201915050505050509190803590602001908201803590602001908080601f0160208091040260200160405190810160405280939291908181526020018383808284378201915050505050509190505061045a565b005b34156101e657600080fd5b6101ee61045f565b005b34156101fb57600080fd5b610215600480803560001916906020019091905050610523565b6040518082815260200191505060405180910390f35b341561023657600080fd5b61025960048080356000191690602001909190803590602001909190505061053b565b005b341561026657600080fd5b61028060048080356000191690602001909190505061058e565b6040518082815260200191505060405180910390f35b34156102a157600080fd5b6102a96105b3565b60405180826000191660001916815260200191505060405180910390f35b6102cf6105b9565b73ffffffffffffffffffffffffffffffffffffffff163373ffffffffffffffffffffffffffffffffffffffff1614151561030857600080fd5b610311816108cf565b6006819055506006547fa8d765a2faa2c308b048b433a02e03f06e150ae6b2d47da677f48992df5b888560405160405180910390a25050565b6000806000806009600081548110151561036057fe5b906000526020600020900154600781600019169055506103b9600860006009600081548110151561038d57fe5b9060005260206000209001546000191660001916815260200190815260200160002054600654036108e3565b9250600191505b60098054905082101561044f5761040f600860006009858154811015156103e357fe5b9060005260206000209001546000191660001916815260200190815260200160002054600654036108e3565b9050808313156104425760098281548110151561042857fe5b906000526020600020900154600781600019169055508092505b81806001019250506103c0565b600754935050505090565b505050565b6105206040805190810160405280600381526020017f55524c0000000000000000000000000000000000000000000000000000000000815250608060405190810160405280604e81526020017f6a736f6e2868747470733a2f2f6170692e636f696e6465736b2e636f6d2f763181526020017f2f6270692f63757272656e7470726963652f696e722e6a736f6e292e6270692e81526020017f494e522e726174655f666c6f6174000000000000000000000000000000000000815250610902565b50565b60086020528060005260406000206000915090505481565b80600860008460001916600019168152602001908152602001600020819055506009805480600101828161056f91906115f4565b9160005260206000209001600084909190915090600019169055505050565b6000600860008360001916600019168152602001908152602001600020549050919050565b60075481565b6000806000809054906101000a900473ffffffffffffffffffffffffffffffffffffffff1673ffffffffffffffffffffffffffffffffffffffff161480610629575060006106276000809054906101000a900473ffffffffffffffffffffffffffffffffffffffff16610e44565b145b1561063a576106386000610e4f565b505b6000809054906101000a900473ffffffffffffffffffffffffffffffffffffffff1673ffffffffffffffffffffffffffffffffffffffff166338cc48316000604051602001526040518163ffffffff167c0100000000000000000000000000000000000000000000000000000000028152600401602060405180830381600087803b15156106c757600080fd5b6102c65a03f115156106d857600080fd5b5050506040518051905073ffffffffffffffffffffffffffffffffffffffff16600160009054906101000a900473ffffffffffffffffffffffffffffffffffffffff1673ffffffffffffffffffffffffffffffffffffffff16141515610821576000809054906101000a900473ffffffffffffffffffffffffffffffffffffffff1673ffffffffffffffffffffffffffffffffffffffff166338cc48316000604051602001526040518163ffffffff167c0100000000000000000000000000000000000000000000000000000000028152600401602060405180830381600087803b15156107c557600080fd5b6102c65a03f115156107d657600080fd5b50505060405180519050600160006101000a81548173ffffffffffffffffffffffffffffffffffffffff021916908373ffffffffffffffffffffffffffffffffffffffff1602179055505b600160009054906101000a900473ffffffffffffffffffffffffffffffffffffffff1673ffffffffffffffffffffffffffffffffffffffff1663c281d19e6000604051602001526040518163ffffffff167c0100000000000000000000000000000000000000000000000000000000028152600401602060405180830381600087803b15156108af57600080fd5b6102c65a03f115156108c057600080fd5b50505060405180519050905090565b60006108dc8260006112e0565b9050919050565b600080821215156108f6578190506108fd565b8160000390505b919050565b60008060008060009054906101000a900473ffffffffffffffffffffffffffffffffffffffff1673ffffffffffffffffffffffffffffffffffffffff161480610974575060006109726000809054906101000a900473ffffffffffffffffffffffffffffffffffffffff16610e44565b145b15610985576109836000610e4f565b505b6000809054906101000a900473ffffffffffffffffffffffffffffffffffffffff1673ffffffffffffffffffffffffffffffffffffffff166338cc48316000604051602001526040518163ffffffff167c0100000000000000000000000000000000000000000000000000000000028152600401602060405180830381600087803b1515610a1257600080fd5b6102c65a03f11515610a2357600080fd5b5050506040518051905073ffffffffffffffffffffffffffffffffffffffff16600160009054906101000a900473ffffffffffffffffffffffffffffffffffffffff1673ffffffffffffffffffffffffffffffffffffffff16141515610b6c576000809054906101000a900473ffffffffffffffffffffffffffffffffffffffff1673ffffffffffffffffffffffffffffffffffffffff166338cc48316000604051602001526040518163ffffffff167c0100000000000000000000000000000000000000000000000000000000028152600401602060405180830381600087803b1515610b1057600080fd5b6102c65a03f11515610b2157600080fd5b50505060405180519050600160006101000a81548173ffffffffffffffffffffffffffffffffffffffff021916908373ffffffffffffffffffffffffffffffffffffffff1602179055505b600160009054906101000a900473ffffffffffffffffffffffffffffffffffffffff1673ffffffffffffffffffffffffffffffffffffffff1663524f3889856000604051602001526040518263ffffffff167c01000000000000000000000000000000000000000000000000000000000281526004018080602001828103825283818151815260200191508051906020019080838360005b83811015610c1f578082015181840152602081019050610c04565b50505050905090810190601f168015610c4c5780820380516001836020036101000a031916815260200191505b5092505050602060405180830381600087803b1515610c6a57600080fd5b6102c65a03f11515610c7b57600080fd5b50505060405180519050905062030d403a02670de0b6b3a764000001811115610caa5760006001029150610e3d565b600160009054906101000a900473ffffffffffffffffffffffffffffffffffffffff1673ffffffffffffffffffffffffffffffffffffffff1663adf59f9982600087876000604051602001526040518563ffffffff167c0100000000000000000000000000000000000000000000000000000000028152600401808481526020018060200180602001838103835285818151815260200191508051906020019080838360005b83811015610d6b578082015181840152602081019050610d50565b50505050905090810190601f168015610d985780820380516001836020036101000a031916815260200191505b50838103825284818151815260200191508051906020019080838360005b83811015610dd1578082015181840152602081019050610db6565b50505050905090810190601f168015610dfe5780820380516001836020036101000a031916815260200191505b50955050505050506020604051808303818588803b1515610e1e57600080fd5b6125ee5a03f11515610e2f57600080fd5b505050506040518051905091505b5092915050565b6000813b9050919050565b600080610e6f731d3b2638a7cc9f2cb3d298a3da7a90b67e5506ed610e44565b1115610f1057731d3b2638a7cc9f2cb3d298a3da7a90b67e5506ed6000806101000a81548173ffffffffffffffffffffffffffffffffffffffff021916908373ffffffffffffffffffffffffffffffffffffffff160217905550610f076040805190810160405280600b81526020017f6574685f6d61696e6e65740000000000000000000000000000000000000000008152506115da565b600190506112db565b6000610f2f73c03a2615d5efaf5f49f60b7bb6583eaec212fdf1610e44565b1115610fd05773c03a2615d5efaf5f49f60b7bb6583eaec212fdf16000806101000a81548173ffffffffffffffffffffffffffffffffffffffff021916908373ffffffffffffffffffffffffffffffffffffffff160217905550610fc76040805190810160405280600c81526020017f6574685f726f707374656e3300000000000000000000000000000000000000008152506115da565b600190506112db565b6000610fef73b7a07bcf2ba2f2703b24c0691b5278999c59ac7e610e44565b11156110905773b7a07bcf2ba2f2703b24c0691b5278999c59ac7e6000806101000a81548173ffffffffffffffffffffffffffffffffffffffff021916908373ffffffffffffffffffffffffffffffffffffffff1602179055506110876040805190810160405280600981526020017f6574685f6b6f76616e00000000000000000000000000000000000000000000008152506115da565b600190506112db565b60006110af73146500cfd35b22e4a392fe0adc06de1a1368ed48610e44565b11156111505773146500cfd35b22e4a392fe0adc06de1a1368ed486000806101000a81548173ffffffffffffffffffffffffffffffffffffffff021916908373ffffffffffffffffffffffffffffffffffffffff1602179055506111476040805190810160405280600b81526020017f6574685f72696e6b6562790000000000000000000000000000000000000000008152506115da565b600190506112db565b600061116f736f485c8bf6fc43ea212e93bbf8ce046c7f1cb475610e44565b11156111d257736f485c8bf6fc43ea212e93bbf8ce046c7f1cb4756000806101000a81548173ffffffffffffffffffffffffffffffffffffffff021916908373ffffffffffffffffffffffffffffffffffffffff160217905550600190506112db565b60006111f17320e12a1f859b3feae5fb2a0a32c18f5a65555bbf610e44565b1115611254577320e12a1f859b3feae5fb2a0a32c18f5a65555bbf6000806101000a81548173ffffffffffffffffffffffffffffffffffffffff021916908373ffffffffffffffffffffffffffffffffffffffff160217905550600190506112db565b60006112737351efaf4c8b3c9afbd5ab9f4bbc82784ab6ef8faa610e44565b11156112d6577351efaf4c8b3c9afbd5ab9f4bbc82784ab6ef8faa6000806101000a81548173ffffffffffffffffffffffffffffffffffffffff021916908373ffffffffffffffffffffffffffffffffffffffff160217905550600190506112db565b600090505b919050565b60006112ea611620565b60008060008693506000925060009150600090505b83518110156115bb5760307f010000000000000000000000000000000000000000000000000000000000000002848281518110151561133a57fe5b9060200101517f010000000000000000000000000000000000000000000000000000000000000090047f0100000000000000000000000000000000000000000000000000000000000000027effffffffffffffffffffffffffffffffffffffffffffffffffffffffffffff191610158015611452575060397f01000000000000000000000000000000000000000000000000000000000000000284828151811015156113e257fe5b9060200101517f010000000000000000000000000000000000000000000000000000000000000090047f0100000000000000000000000000000000000000000000000000000000000000027effffffffffffffffffffffffffffffffffffffffffffffffffffffffffffff191611155b1561150357811561147557600086141561146b576115bb565b8580600190039650505b600a830292506030848281518110151561148b57fe5b9060200101517f010000000000000000000000000000000000000000000000000000000000000090047f0100000000000000000000000000000000000000000000000000000000000000027f0100000000000000000000000000000000000000000000000000000000000000900403830192506115ae565b602e7f010000000000000000000000000000000000000000000000000000000000000002848281518110151561153557fe5b9060200101517f010000000000000000000000000000000000000000000000000000000000000090047f0100000000000000000000000000000000000000000000000000000000000000027effffffffffffffffffffffffffffffffffffffffffffffffffffffffffffff191614156115ad57600191505b5b80806001019150506112ff565b60008611156115cd5785600a0a830292505b8294505050505092915050565b80600290805190602001906115f0929190611634565b5050565b81548183558181151161161b5781836000526020600020918201910161161a91906116b4565b5b505050565b602060405190810160405280600081525090565b828054600181600116156101000203166002900490600052602060002090601f016020900481019282601f1061167557805160ff19168380011785556116a3565b828001600101855582156116a3579182015b828111156116a2578251825591602001919060010190611687565b5b5090506116b091906116d9565b5090565b6116d691905b808211156116d25760008160009055506001016116ba565b5090565b90565b6116fb91905b808211156116f75760008160009055506001016116df565b5090565b905600a165627a7a72305820b4b26397162e301c4769b6f5337fde536a6def1af0e7729e8ca4180bf0c30ed40029",
  "source": "pragma solidity ^0.4.15; \nimport \"./lib/oraclizeAPI.sol\";\n\ncontract Bet is usingOraclize {\n    \n    address private owner;\n    int internal marketPrice;\n    bytes32 public winner;\n    mapping(bytes32 => int) public participants;\n    bytes32[] usernames; \n\n    event LogMarketPrice(int indexed _marketPrice);\n\n    modifier onlyOwner() {\n        require(msg.sender == owner);\n        _;\n    }\n    function Bet(address _bettingAddr) {\n        owner = _bettingAddr;\n        OAR = OraclizeAddrResolverI(0xBDBD4CB5D3DaB6b6386FcE4dD07137816bfd8b4e);\n        // OAR = OraclizeAddrResolverI(0x6f485C8BF6fc43eA212E93BBF8ce046C7f1cb475);\n            }\n\n    function placeBet(bytes32 _username, int _amount) public  {\n        participants[_username] = _amount;\n        usernames.push(_username);\n    }\n\n    function getParticipantAmount(bytes32 _username) constant returns(int) {\n        return participants[_username];\n    }\n    \n    function __callback(bytes32 myid, string result) {\n        if (msg.sender != oraclize_cbAddress()) throw;\n        marketPrice = int (parseInt(result));\n        LogMarketPrice(marketPrice);\n    }\n    \n    function abs(int n) internal constant returns (int) {\n        if(n >= 0) return n;\n        return -n;\n    }\n    \n    function resolve()  returns(bytes32) {\n       // resolve algorithm\n       winner = usernames[0];\n       int winnerValue = abs(marketPrice - participants[usernames[0]]);\n       for(uint i=1; i < usernames.length; i++) {\n               int difference = abs(marketPrice - participants[usernames[i]]);\n               if(winnerValue > difference) {\n                   winner = usernames[i];\n                   winnerValue = difference;\n               }          \n       }\n       return winner;\n    }\n    \n    function declare() public  {\n        oraclize_query(\"URL\", \"json(https://api.coindesk.com/v1/bpi/currentprice/inr.json).bpi.INR.rate_float\");\n    }\n    \n    \n}\n\n",
  "sourcePath": "/home/subhod/workspace/ethereum/betting-contract/contracts/Bet.sol",
  "compiler": {
    "name": "solc",
    "version": "0.4.18+commit.9cf6e910.Emscripten.clang"
  },
  "schemaVersion": "1.0.1",
  "updatedAt": "2017-11-13T14:20:51.929Z"
}