{
  "contractName": "Bet",
  "abi": [
    {
      "constant": false,
      "inputs": [
        {
          "name": "myid",
          "type": "bytes32"
        },
        {
          "name": "result",
          "type": "string"
        }
      ],
      "name": "__callback",
      "outputs": [],
      "payable": false,
      "stateMutability": "nonpayable",
      "type": "function"
    },
    {
      "constant": false,
      "inputs": [
        {
          "name": "myid",
          "type": "bytes32"
        },
        {
          "name": "result",
          "type": "string"
        },
        {
          "name": "proof",
          "type": "bytes"
        }
      ],
      "name": "__callback",
      "outputs": [],
      "payable": false,
      "stateMutability": "nonpayable",
      "type": "function"
    },
    {
      "constant": false,
      "inputs": [],
      "name": "declare",
      "outputs": [],
      "payable": true,
      "stateMutability": "payable",
      "type": "function"
    },
    {
      "constant": true,
      "inputs": [
        {
          "name": "",
          "type": "bytes32"
        }
      ],
      "name": "participants",
      "outputs": [
        {
          "name": "",
          "type": "int256"
        }
      ],
      "payable": false,
      "stateMutability": "view",
      "type": "function"
    },
    {
      "constant": false,
      "inputs": [
        {
          "name": "_username",
          "type": "bytes32"
        },
        {
          "name": "_amount",
          "type": "int256"
        }
      ],
      "name": "placeBet",
      "outputs": [],
      "payable": false,
      "stateMutability": "nonpayable",
      "type": "function"
    },
    {
      "constant": true,
      "inputs": [],
      "name": "winner",
      "outputs": [
        {
          "name": "",
          "type": "bytes32"
        }
      ],
      "payable": false,
      "stateMutability": "view",
      "type": "function"
    },
    {
      "inputs": [
        {
          "name": "_bettingAddr",
          "type": "address"
        }
      ],
      "payable": false,
      "stateMutability": "nonpayable",
      "type": "constructor"
    },
    {
      "anonymous": false,
      "inputs": [
        {
          "indexed": true,
          "name": "_contractAddress",
          "type": "address"
        },
        {
          "indexed": true,
          "name": "_winner",
          "type": "bytes32"
        }
      ],
      "name": "LogWinner",
      "type": "event"
    }
  ],
  "bytecode": "0x6060604052341561000f57600080fd5b60405160208061182e8339810160405280805190602001909190505080600560006101000a81548173ffffffffffffffffffffffffffffffffffffffff021916908373ffffffffffffffffffffffffffffffffffffffff160217905550736f485c8bf6fc43ea212e93bbf8ce046c7f1cb4756000806101000a81548173ffffffffffffffffffffffffffffffffffffffff021916908373ffffffffffffffffffffffffffffffffffffffff1602179055505061175e806100d06000396000f300606060405260043610610078576000357c0100000000000000000000000000000000000000000000000000000000900463ffffffff16806327dc297e1461007d57806338bbfa50146100e75780634ccde68814610194578063653e0f7f1461019e5780636e643a95146101d9578063dfbf53ae14610209575b600080fd5b341561008857600080fd5b6100e560048080356000191690602001909190803590602001908201803590602001908080601f0160208091040260200160405190810160405280939291908181526020018383808284378201915050505050509190505061023a565b005b34156100f257600080fd5b61019260048080356000191690602001909190803590602001908201803590602001908080601f0160208091040260200160405190810160405280939291908181526020018383808284378201915050505050509190803590602001908201803590602001908080601f01602080910402602001604051908101604052809392919081815260200183838082843782019150505050505091905050610299565b005b61019c61029e565b005b34156101a957600080fd5b6101c36004808035600019169060200190919050506103c2565b6040518082815260200191505060405180910390f35b34156101e457600080fd5b6102076004808035600019169060200190919080359060200190919050506103da565b005b341561021457600080fd5b61021c610489565b60405180826000191660001916815260200191505060405180910390f35b61024261048f565b73ffffffffffffffffffffffffffffffffffffffff163373ffffffffffffffffffffffffffffffffffffffff1614151561027b57600080fd5b610284816107a5565b6006819055506102956006546107b9565b5050565b505050565b600560009054906101000a900473ffffffffffffffffffffffffffffffffffffffff1673ffffffffffffffffffffffffffffffffffffffff163373ffffffffffffffffffffffffffffffffffffffff161415156102fa57600080fd5b6103bf6040805190810160405280600381526020017f55524c0000000000000000000000000000000000000000000000000000000000815250608060405190810160405280604e81526020017f6a736f6e2868747470733a2f2f6170692e636f696e6465736b2e636f6d2f763181526020017f2f6270692f63757272656e7470726963652f696e722e6a736f6e292e6270692e81526020017f494e522e726174655f666c6f6174000000000000000000000000000000000000815250624c4b40610909565b50565b60086020528060005260406000206000915090505481565b600560009054906101000a900473ffffffffffffffffffffffffffffffffffffffff1673ffffffffffffffffffffffffffffffffffffffff163373ffffffffffffffffffffffffffffffffffffffff1614151561043657600080fd5b80600860008460001916600019168152602001908152602001600020819055506009805480600101828161046a9190611628565b9160005260206000209001600084909190915090600019169055505050565b60075481565b6000806000809054906101000a900473ffffffffffffffffffffffffffffffffffffffff1673ffffffffffffffffffffffffffffffffffffffff1614806104ff575060006104fd6000809054906101000a900473ffffffffffffffffffffffffffffffffffffffff16610e59565b145b156105105761050e6000610e64565b505b6000809054906101000a900473ffffffffffffffffffffffffffffffffffffffff1673ffffffffffffffffffffffffffffffffffffffff166338cc48316000604051602001526040518163ffffffff167c0100000000000000000000000000000000000000000000000000000000028152600401602060405180830381600087803b151561059d57600080fd5b6102c65a03f115156105ae57600080fd5b5050506040518051905073ffffffffffffffffffffffffffffffffffffffff16600160009054906101000a900473ffffffffffffffffffffffffffffffffffffffff1673ffffffffffffffffffffffffffffffffffffffff161415156106f7576000809054906101000a900473ffffffffffffffffffffffffffffffffffffffff1673ffffffffffffffffffffffffffffffffffffffff166338cc48316000604051602001526040518163ffffffff167c0100000000000000000000000000000000000000000000000000000000028152600401602060405180830381600087803b151561069b57600080fd5b6102c65a03f115156106ac57600080fd5b50505060405180519050600160006101000a81548173ffffffffffffffffffffffffffffffffffffffff021916908373ffffffffffffffffffffffffffffffffffffffff1602179055505b600160009054906101000a900473ffffffffffffffffffffffffffffffffffffffff1673ffffffffffffffffffffffffffffffffffffffff1663c281d19e6000604051602001526040518163ffffffff167c0100000000000000000000000000000000000000000000000000000000028152600401602060405180830381600087803b151561078557600080fd5b6102c65a03f1151561079657600080fd5b50505060405180519050905090565b60006107b28260006112f5565b9050919050565b6000806000600960008154811015156107ce57fe5b9060005260206000209001546007816000191690555061082560086000600960008154811015156107fb57fe5b906000526020600020900154600019166000191681526020019081526020016000205485036115ef565b9250600191505b6009805490508210156108b9576108796008600060098581548110151561084f57fe5b906000526020600020900154600019166000191681526020019081526020016000205485036115ef565b9050808313156108ac5760098281548110151561089257fe5b906000526020600020900154600781600019169055508092505b818060010192505061082c565b600754600019163073ffffffffffffffffffffffffffffffffffffffff167fd187ce82df032d5ffc5c7990fe887af2f29e753c0ddce448f9034e7e8232065a60405160405180910390a350505050565b60008060008060009054906101000a900473ffffffffffffffffffffffffffffffffffffffff1673ffffffffffffffffffffffffffffffffffffffff16148061097b575060006109796000809054906101000a900473ffffffffffffffffffffffffffffffffffffffff16610e59565b145b1561098c5761098a6000610e64565b505b6000809054906101000a900473ffffffffffffffffffffffffffffffffffffffff1673ffffffffffffffffffffffffffffffffffffffff166338cc48316000604051602001526040518163ffffffff167c0100000000000000000000000000000000000000000000000000000000028152600401602060405180830381600087803b1515610a1957600080fd5b6102c65a03f11515610a2a57600080fd5b5050506040518051905073ffffffffffffffffffffffffffffffffffffffff16600160009054906101000a900473ffffffffffffffffffffffffffffffffffffffff1673ffffffffffffffffffffffffffffffffffffffff16141515610b73576000809054906101000a900473ffffffffffffffffffffffffffffffffffffffff1673ffffffffffffffffffffffffffffffffffffffff166338cc48316000604051602001526040518163ffffffff167c0100000000000000000000000000000000000000000000000000000000028152600401602060405180830381600087803b1515610b1757600080fd5b6102c65a03f11515610b2857600080fd5b50505060405180519050600160006101000a81548173ffffffffffffffffffffffffffffffffffffffff021916908373ffffffffffffffffffffffffffffffffffffffff1602179055505b600160009054906101000a900473ffffffffffffffffffffffffffffffffffffffff1673ffffffffffffffffffffffffffffffffffffffff16632ef3accc86856000604051602001526040518363ffffffff167c01000000000000000000000000000000000000000000000000000000000281526004018080602001838152602001828103825284818151815260200191508051906020019080838360005b83811015610c2d578082015181840152602081019050610c12565b50505050905090810190601f168015610c5a5780820380516001836020036101000a031916815260200191505b509350505050602060405180830381600087803b1515610c7957600080fd5b6102c65a03f11515610c8a57600080fd5b505050604051805190509050823a02670de0b6b3a764000001811115610cb65760006001029150610e51565b600160009054906101000a900473ffffffffffffffffffffffffffffffffffffffff1673ffffffffffffffffffffffffffffffffffffffff1663c51be90f8260008888886000604051602001526040518663ffffffff167c0100000000000000000000000000000000000000000000000000000000028152600401808581526020018060200180602001848152602001838103835286818151815260200191508051906020019080838360005b83811015610d7e578082015181840152602081019050610d63565b50505050905090810190601f168015610dab5780820380516001836020036101000a031916815260200191505b50838103825285818151815260200191508051906020019080838360005b83811015610de4578082015181840152602081019050610dc9565b50505050905090810190601f168015610e115780820380516001836020036101000a031916815260200191505b5096505050505050506020604051808303818588803b1515610e3257600080fd5b6125ee5a03f11515610e4357600080fd5b505050506040518051905091505b509392505050565b6000813b9050919050565b600080610e84731d3b2638a7cc9f2cb3d298a3da7a90b67e5506ed610e59565b1115610f2557731d3b2638a7cc9f2cb3d298a3da7a90b67e5506ed6000806101000a81548173ffffffffffffffffffffffffffffffffffffffff021916908373ffffffffffffffffffffffffffffffffffffffff160217905550610f1c6040805190810160405280600b81526020017f6574685f6d61696e6e657400000000000000000000000000000000000000000081525061160e565b600190506112f0565b6000610f4473c03a2615d5efaf5f49f60b7bb6583eaec212fdf1610e59565b1115610fe55773c03a2615d5efaf5f49f60b7bb6583eaec212fdf16000806101000a81548173ffffffffffffffffffffffffffffffffffffffff021916908373ffffffffffffffffffffffffffffffffffffffff160217905550610fdc6040805190810160405280600c81526020017f6574685f726f707374656e33000000000000000000000000000000000000000081525061160e565b600190506112f0565b600061100473b7a07bcf2ba2f2703b24c0691b5278999c59ac7e610e59565b11156110a55773b7a07bcf2ba2f2703b24c0691b5278999c59ac7e6000806101000a81548173ffffffffffffffffffffffffffffffffffffffff021916908373ffffffffffffffffffffffffffffffffffffffff16021790555061109c6040805190810160405280600981526020017f6574685f6b6f76616e000000000000000000000000000000000000000000000081525061160e565b600190506112f0565b60006110c473146500cfd35b22e4a392fe0adc06de1a1368ed48610e59565b11156111655773146500cfd35b22e4a392fe0adc06de1a1368ed486000806101000a81548173ffffffffffffffffffffffffffffffffffffffff021916908373ffffffffffffffffffffffffffffffffffffffff16021790555061115c6040805190810160405280600b81526020017f6574685f72696e6b65627900000000000000000000000000000000000000000081525061160e565b600190506112f0565b6000611184736f485c8bf6fc43ea212e93bbf8ce046c7f1cb475610e59565b11156111e757736f485c8bf6fc43ea212e93bbf8ce046c7f1cb4756000806101000a81548173ffffffffffffffffffffffffffffffffffffffff021916908373ffffffffffffffffffffffffffffffffffffffff160217905550600190506112f0565b60006112067320e12a1f859b3feae5fb2a0a32c18f5a65555bbf610e59565b1115611269577320e12a1f859b3feae5fb2a0a32c18f5a65555bbf6000806101000a81548173ffffffffffffffffffffffffffffffffffffffff021916908373ffffffffffffffffffffffffffffffffffffffff160217905550600190506112f0565b60006112887351efaf4c8b3c9afbd5ab9f4bbc82784ab6ef8faa610e59565b11156112eb577351efaf4c8b3c9afbd5ab9f4bbc82784ab6ef8faa6000806101000a81548173ffffffffffffffffffffffffffffffffffffffff021916908373ffffffffffffffffffffffffffffffffffffffff160217905550600190506112f0565b600090505b919050565b60006112ff611654565b60008060008693506000925060009150600090505b83518110156115d05760307f010000000000000000000000000000000000000000000000000000000000000002848281518110151561134f57fe5b9060200101517f010000000000000000000000000000000000000000000000000000000000000090047f0100000000000000000000000000000000000000000000000000000000000000027effffffffffffffffffffffffffffffffffffffffffffffffffffffffffffff191610158015611467575060397f01000000000000000000000000000000000000000000000000000000000000000284828151811015156113f757fe5b9060200101517f010000000000000000000000000000000000000000000000000000000000000090047f0100000000000000000000000000000000000000000000000000000000000000027effffffffffffffffffffffffffffffffffffffffffffffffffffffffffffff191611155b1561151857811561148a576000861415611480576115d0565b8580600190039650505b600a83029250603084828151811015156114a057fe5b9060200101517f010000000000000000000000000000000000000000000000000000000000000090047f0100000000000000000000000000000000000000000000000000000000000000027f0100000000000000000000000000000000000000000000000000000000000000900403830192506115c3565b602e7f010000000000000000000000000000000000000000000000000000000000000002848281518110151561154a57fe5b9060200101517f010000000000000000000000000000000000000000000000000000000000000090047f0100000000000000000000000000000000000000000000000000000000000000027effffffffffffffffffffffffffffffffffffffffffffffffffffffffffffff191614156115c257600191505b5b8080600101915050611314565b60008611156115e25785600a0a830292505b8294505050505092915050565b6000808212151561160257819050611609565b8160000390505b919050565b8060029080519060200190611624929190611668565b5050565b81548183558181151161164f5781836000526020600020918201910161164e91906116e8565b5b505050565b602060405190810160405280600081525090565b828054600181600116156101000203166002900490600052602060002090601f016020900481019282601f106116a957805160ff19168380011785556116d7565b828001600101855582156116d7579182015b828111156116d65782518255916020019190600101906116bb565b5b5090506116e4919061170d565b5090565b61170a91905b808211156117065760008160009055506001016116ee565b5090565b90565b61172f91905b8082111561172b576000816000905550600101611713565b5090565b905600a165627a7a7230582054202e78f4410eb6a71fa4fbee1007d393855ae286141e85cdc7199a1c31bb790029",
  "source": "pragma solidity ^0.4.15; \nimport \"./lib/oraclizeAPI.sol\";\n\ncontract Bet is usingOraclize {\n    \n    address private owner;\n    int internal marketPrice;\n    bytes32 public winner;\n    mapping(bytes32 => int) public participants;\n    bytes32[] usernames; \n    \n    event LogWinner(address indexed _contractAddress, bytes32 indexed _winner);\n\n    modifier onlyOwner() {\n        require(msg.sender == owner);\n        _;\n    }\n    function Bet(address _bettingAddr) {\n        owner = _bettingAddr;\n        OAR = OraclizeAddrResolverI(0x6f485C8BF6fc43eA212E93BBF8ce046C7f1cb475);\n        \n    }\n\n    function placeBet(bytes32 _username, int _amount) public onlyOwner {\n        participants[_username] = _amount;\n        usernames.push(_username);\n    }\n    \n    function __callback(bytes32 myid, string result) {\n        if (msg.sender != oraclize_cbAddress()) throw;\n        marketPrice = int (parseInt(result));\n        resolve(marketPrice);\n    }\n    \n    function abs(int n) internal constant returns (int) {\n        if(n >= 0) return n;\n        return -n;\n    }\n    \n    function resolve(int _marketPrice) internal {\n       // resolve algorithm\n       winner = usernames[0];\n       int winnerValue = abs(_marketPrice - participants[usernames[0]]);\n       for(uint i=1; i < usernames.length; i++) {\n               int difference = abs(_marketPrice - participants[usernames[i]]);\n               if(winnerValue > difference) {\n                   winner = usernames[i];\n                   winnerValue = difference;\n               }          \n       }\n       LogWinner(this, winner);\n    }\n    \n    function declare() public onlyOwner payable {\n        oraclize_query(\"URL\", \"json(https://api.coindesk.com/v1/bpi/currentprice/inr.json).bpi.INR.rate_float\",5000000);\n    }\n    \n    \n}\n\n",
  "sourcePath": "/home/subhod/workspace/ethereum/betting-contract/contracts/Bet.sol",
  "compiler": {
    "name": "solc",
    "version": "0.4.18+commit.9cf6e910.Emscripten.clang"
  },
  "schemaVersion": "1.0.1",
  "updatedAt": "2017-11-08T08:24:42.743Z"
}