{
  "contractName": "Betting",
  "abi": [
    {
      "constant": true,
      "inputs": [],
      "name": "initialBalance",
      "outputs": [
        {
          "name": "",
          "type": "uint256"
        }
      ],
      "payable": false,
      "stateMutability": "view",
      "type": "function"
    },
    {
      "constant": false,
      "inputs": [
        {
          "name": "_addr",
          "type": "address"
        }
      ],
      "name": "newRound",
      "outputs": [],
      "payable": false,
      "stateMutability": "nonpayable",
      "type": "function"
    },
    {
      "constant": false,
      "inputs": [],
      "name": "declare",
      "outputs": [],
      "payable": true,
      "stateMutability": "payable",
      "type": "function"
    },
    {
      "constant": false,
      "inputs": [
        {
          "name": "_username",
          "type": "bytes32"
        },
        {
          "name": "_amount",
          "type": "int256"
        },
        {
          "name": "_coinsSpent",
          "type": "uint256"
        }
      ],
      "name": "placeBet",
      "outputs": [],
      "payable": false,
      "stateMutability": "nonpayable",
      "type": "function"
    },
    {
      "constant": true,
      "inputs": [],
      "name": "getLeaderboard",
      "outputs": [
        {
          "name": "",
          "type": "bytes32[]"
        },
        {
          "name": "",
          "type": "uint256[]"
        }
      ],
      "payable": false,
      "stateMutability": "view",
      "type": "function"
    },
    {
      "constant": true,
      "inputs": [
        {
          "name": "username",
          "type": "bytes32"
        }
      ],
      "name": "getBalance",
      "outputs": [
        {
          "name": "",
          "type": "uint256"
        }
      ],
      "payable": false,
      "stateMutability": "view",
      "type": "function"
    },
    {
      "constant": true,
      "inputs": [],
      "name": "currentBet",
      "outputs": [
        {
          "name": "",
          "type": "address"
        }
      ],
      "payable": false,
      "stateMutability": "view",
      "type": "function"
    },
    {
      "constant": false,
      "inputs": [
        {
          "name": "_username",
          "type": "bytes32"
        }
      ],
      "name": "register",
      "outputs": [],
      "payable": false,
      "stateMutability": "nonpayable",
      "type": "function"
    },
    {
      "inputs": [
        {
          "name": "_initialBalance",
          "type": "uint256"
        }
      ],
      "payable": false,
      "stateMutability": "nonpayable",
      "type": "constructor"
    }
  ],
  "bytecode": "0x60606040526000600255341561001457600080fd5b60405160208061097c83398101604052808051906020019091905050336000806101000a81548173ffffffffffffffffffffffffffffffffffffffff021916908373ffffffffffffffffffffffffffffffffffffffff16021790555080600281905550506108f5806100876000396000f30060606040526004361061008e576000357c0100000000000000000000000000000000000000000000000000000000900463ffffffff16806318369a2a1461009357806342ad16d1146100bc5780634ccde688146100f5578063598b5167146100ff5780636d763a6e146101385780638e739461146101ea578063d504cb6514610225578063e1fa8e841461027a575b600080fd5b341561009e57600080fd5b6100a66102a1565b6040518082815260200191505060405180910390f35b34156100c757600080fd5b6100f3600480803573ffffffffffffffffffffffffffffffffffffffff169060200190919050506102a7565b005b6100fd610387565b005b341561010a57600080fd5b61013660048080356000191690602001909190803590602001909190803590602001909190505061047d565b005b341561014357600080fd5b61014b6105ff565b604051808060200180602001838103835285818151815260200191508051906020019060200280838360005b83811015610192578082015181840152602081019050610177565b50505050905001838103825284818151815260200191508051906020019060200280838360005b838110156101d45780820151818401526020810190506101b9565b5050505090500194505050505060405180910390f35b34156101f557600080fd5b61020f60048080356000191690602001909190505061072c565b6040518082815260200191505060405180910390f35b341561023057600080fd5b610238610751565b604051808273ffffffffffffffffffffffffffffffffffffffff1673ffffffffffffffffffffffffffffffffffffffff16815260200191505060405180910390f35b341561028557600080fd5b61029f600480803560001916906020019091905050610777565b005b60025481565b3373ffffffffffffffffffffffffffffffffffffffff166000809054906101000a900473ffffffffffffffffffffffffffffffffffffffff1673ffffffffffffffffffffffffffffffffffffffff1614151561030257600080fd5b80600160006101000a81548173ffffffffffffffffffffffffffffffffffffffff021916908373ffffffffffffffffffffffffffffffffffffffff16021790555080600560006101000a81548173ffffffffffffffffffffffffffffffffffffffff021916908373ffffffffffffffffffffffffffffffffffffffff16021790555050565b3373ffffffffffffffffffffffffffffffffffffffff166000809054906101000a900473ffffffffffffffffffffffffffffffffffffffff1673ffffffffffffffffffffffffffffffffffffffff161415156103e257600080fd5b600560009054906101000a900473ffffffffffffffffffffffffffffffffffffffff1673ffffffffffffffffffffffffffffffffffffffff16634ccde6886040518163ffffffff167c0100000000000000000000000000000000000000000000000000000000028152600401600060405180830381600087803b151561046757600080fd5b6102c65a03f1151561047857600080fd5b505050565b3373ffffffffffffffffffffffffffffffffffffffff166000809054906101000a900473ffffffffffffffffffffffffffffffffffffffff1673ffffffffffffffffffffffffffffffffffffffff161415156104d857600080fd5b6000821380156104e85750600081115b80156105125750600081600360008660001916600019168152602001908152602001600020540310155b151561051d57600080fd5b8060036000856000191660001916815260200190815260200160002060008282540392505081905550600560009054906101000a900473ffffffffffffffffffffffffffffffffffffffff1673ffffffffffffffffffffffffffffffffffffffff16636e643a9584846040518363ffffffff167c010000000000000000000000000000000000000000000000000000000002815260040180836000191660001916815260200182815260200192505050600060405180830381600087803b15156105e657600080fd5b6102c65a03f115156105f757600080fd5b505050505050565b610607610850565b61060f610864565b610617610850565b61061f610864565b60006004805490506040518059106106345750595b9080825280602002602001820160405250925060048054905060405180591061065a5750595b90808252806020026020018201604052509150600090505b60048054905081101561071f5760048181548110151561068e57fe5b90600052602060002090015483828151811015156106a857fe5b906020019060200201906000191690816000191681525050600360006004838154811015156106d357fe5b9060005260206000209001546000191660001916815260200190815260200160002054828281518110151561070457fe5b90602001906020020181815250508080600101915050610672565b8282945094505050509091565b6000600360008360001916600019168152602001908152602001600020549050919050565b600160009054906101000a900473ffffffffffffffffffffffffffffffffffffffff1681565b3373ffffffffffffffffffffffffffffffffffffffff166000809054906101000a900473ffffffffffffffffffffffffffffffffffffffff1673ffffffffffffffffffffffffffffffffffffffff161415156107d257600080fd5b6000600360008360001916600019168152602001908152602001600020541415156107fc57600080fd5b60025460036000836000191660001916815260200190815260200160002081905550600480548060010182816108329190610878565b91600052602060002090016000839091909150906000191690555050565b602060405190810160405280600081525090565b602060405190810160405280600081525090565b81548183558181151161089f5781836000526020600020918201910161089e91906108a4565b5b505050565b6108c691905b808211156108c25760008160009055506001016108aa565b5090565b905600a165627a7a7230582073c6564e074819ab08fdf517ea4cec98f69652466c16613d19372ca7569990f50029",
  "source": "pragma solidity ^0.4.15; \nimport \"./Bet.sol\";\ncontract Betting {\n    address private owner;\n    address public currentBet;\n    uint public initialBalance = 0;\n    mapping( bytes32 => uint) balance;\n    bytes32[] users;\n    Bet betContract;\n    \n    modifier onlyOwner() {\n        require( owner == msg.sender);\n        _;\n    }\n    \n    function Betting(uint _initialBalance) public {\n        owner = msg.sender;\n        initialBalance = _initialBalance;\n    }\n    \n    function newRound(address _addr) public onlyOwner {\n        currentBet = _addr;\n        betContract = Bet(_addr);\n    }\n    \n    function register(bytes32 _username) public onlyOwner {\n        require( balance[_username] == 0);\n        balance[_username] = initialBalance;\n        users.push(_username);\n        \n    }\n    \n    function getBalance(bytes32 username) public constant returns(uint) {\n        return balance[username];\n    }\n    \n    function getLeaderboard() public constant returns(bytes32[], uint[]) {\n        bytes32[]  memory usernames =  new bytes32[](users.length);\n        uint[]  memory score =  new uint[](users.length);\n        for(uint i=0;i<users.length;i++) {\n            usernames[i]=users[i];\n            score[i] = balance[users[i]];\n        }\n        return (usernames, score);\n    }\n    \n    // Betting functions\n    function placeBet(bytes32 _username, int _amount, uint _coinsSpent) public onlyOwner {\n        require(_amount > 0 && _coinsSpent > 0 && balance[_username] - _coinsSpent >= 0);\n        balance[_username] -= _coinsSpent;\n        betContract.placeBet(_username, _amount);\n    }\n    \n    function declare() onlyOwner payable {\n        betContract.declare();\n    }\n\n}\n\n",
  "sourcePath": "/home/subhod/workspace/ethereum/betting-contract/contracts/Betting.sol",
  "compiler": {
    "name": "solc",
    "version": "0.4.18+commit.9cf6e910.Emscripten.clang"
  },
  "schemaVersion": "1.0.1",
  "updatedAt": "2017-11-08T12:26:36.627Z"
}