{
  "contractName": "Betting",
  "abi": [
    {
      "constant": true,
      "inputs": [],
      "name": "initialBalance",
      "outputs": [
        {
          "name": "",
          "type": "uint256"
        }
      ],
      "payable": false,
      "stateMutability": "view",
      "type": "function"
    },
    {
      "constant": false,
      "inputs": [],
      "name": "resolve",
      "outputs": [],
      "payable": false,
      "stateMutability": "nonpayable",
      "type": "function"
    },
    {
      "constant": false,
      "inputs": [
        {
          "name": "_addr",
          "type": "address"
        }
      ],
      "name": "newRound",
      "outputs": [],
      "payable": false,
      "stateMutability": "nonpayable",
      "type": "function"
    },
    {
      "constant": false,
      "inputs": [],
      "name": "declare",
      "outputs": [],
      "payable": false,
      "stateMutability": "nonpayable",
      "type": "function"
    },
    {
      "constant": false,
      "inputs": [
        {
          "name": "_username",
          "type": "bytes32"
        },
        {
          "name": "_amount",
          "type": "int256"
        },
        {
          "name": "_coinsSpent",
          "type": "uint256"
        }
      ],
      "name": "placeBet",
      "outputs": [],
      "payable": false,
      "stateMutability": "nonpayable",
      "type": "function"
    },
    {
      "constant": true,
      "inputs": [],
      "name": "getLeaderboard",
      "outputs": [
        {
          "name": "",
          "type": "bytes32[]"
        },
        {
          "name": "",
          "type": "uint256[]"
        }
      ],
      "payable": false,
      "stateMutability": "view",
      "type": "function"
    },
    {
      "constant": true,
      "inputs": [
        {
          "name": "username",
          "type": "bytes32"
        }
      ],
      "name": "getBalance",
      "outputs": [
        {
          "name": "",
          "type": "uint256"
        }
      ],
      "payable": false,
      "stateMutability": "view",
      "type": "function"
    },
    {
      "constant": true,
      "inputs": [],
      "name": "currentBet",
      "outputs": [
        {
          "name": "",
          "type": "address"
        }
      ],
      "payable": false,
      "stateMutability": "view",
      "type": "function"
    },
    {
      "constant": false,
      "inputs": [
        {
          "name": "_username",
          "type": "bytes32"
        }
      ],
      "name": "register",
      "outputs": [],
      "payable": false,
      "stateMutability": "nonpayable",
      "type": "function"
    },
    {
      "constant": true,
      "inputs": [],
      "name": "totalBet",
      "outputs": [
        {
          "name": "",
          "type": "uint256"
        }
      ],
      "payable": false,
      "stateMutability": "view",
      "type": "function"
    },
    {
      "inputs": [
        {
          "name": "_initialBalance",
          "type": "uint256"
        }
      ],
      "payable": false,
      "stateMutability": "nonpayable",
      "type": "constructor"
    },
    {
      "anonymous": false,
      "inputs": [
        {
          "indexed": true,
          "name": "_contractAddress",
          "type": "address"
        },
        {
          "indexed": true,
          "name": "_winner",
          "type": "bytes32"
        }
      ],
      "name": "LogWinner",
      "type": "event"
    },
    {
      "anonymous": false,
      "inputs": [
        {
          "indexed": true,
          "name": "_contractAddress",
          "type": "address"
        },
        {
          "indexed": true,
          "name": "_username",
          "type": "bytes32"
        },
        {
          "indexed": true,
          "name": "_amount",
          "type": "int256"
        }
      ],
      "name": "LogBet",
      "type": "event"
    }
  ],
  "bytecode": "0x606060405260006002556000600655341561001957600080fd5b604051602080610b0f83398101604052808051906020019091905050336000806101000a81548173ffffffffffffffffffffffffffffffffffffffff021916908373ffffffffffffffffffffffffffffffffffffffff1602179055508060028190555050610a838061008c6000396000f3006060604052600436106100a4576000357c0100000000000000000000000000000000000000000000000000000000900463ffffffff16806318369a2a146100a95780632810e1d6146100d257806342ad16d1146100e75780634ccde68814610120578063598b5167146101355780636d763a6e1461016e5780638e73946114610220578063d504cb651461025b578063e1fa8e84146102b0578063fe5e1853146102d7575b600080fd5b34156100b457600080fd5b6100bc610300565b6040518082815260200191505060405180910390f35b34156100dd57600080fd5b6100e5610306565b005b34156100f257600080fd5b61011e600480803573ffffffffffffffffffffffffffffffffffffffff16906020019091905050610467565b005b341561012b57600080fd5b61013361054f565b005b341561014057600080fd5b61016c6004808035600019169060200190919080359060200190919080359060200190919050506105ea565b005b341561017957600080fd5b610181610787565b604051808060200180602001838103835285818151815260200191508051906020019060200280838360005b838110156101c85780820151818401526020810190506101ad565b50505050905001838103825284818151815260200191508051906020019060200280838360005b8381101561020a5780820151818401526020810190506101ef565b5050505090500194505050505060405180910390f35b341561022b57600080fd5b6102456004808035600019169060200190919050506108b4565b6040518082815260200191505060405180910390f35b341561026657600080fd5b61026e6108d9565b604051808273ffffffffffffffffffffffffffffffffffffffff1673ffffffffffffffffffffffffffffffffffffffff16815260200191505060405180910390f35b34156102bb57600080fd5b6102d56004808035600019169060200190919050506108ff565b005b34156102e257600080fd5b6102ea6109d8565b6040518082815260200191505060405180910390f35b60025481565b6000600560009054906101000a900473ffffffffffffffffffffffffffffffffffffffff1673ffffffffffffffffffffffffffffffffffffffff16632810e1d66000604051602001526040518163ffffffff167c0100000000000000000000000000000000000000000000000000000000028152600401602060405180830381600087803b151561039657600080fd5b6102c65a03f115156103a757600080fd5b50505060405180519050905060065460036000836000191660001916815260200190815260200160002054016003600083600019166000191681526020019081526020016000208190555060006006819055508060001916600160009054906101000a900473ffffffffffffffffffffffffffffffffffffffff1673ffffffffffffffffffffffffffffffffffffffff167fd187ce82df032d5ffc5c7990fe887af2f29e753c0ddce448f9034e7e8232065a60405160405180910390a350565b3373ffffffffffffffffffffffffffffffffffffffff166000809054906101000a900473ffffffffffffffffffffffffffffffffffffffff1673ffffffffffffffffffffffffffffffffffffffff161415156104c257600080fd5b80600160006101000a81548173ffffffffffffffffffffffffffffffffffffffff021916908373ffffffffffffffffffffffffffffffffffffffff16021790555080600560006101000a81548173ffffffffffffffffffffffffffffffffffffffff021916908373ffffffffffffffffffffffffffffffffffffffff160217905550600060068190555050565b600560009054906101000a900473ffffffffffffffffffffffffffffffffffffffff1673ffffffffffffffffffffffffffffffffffffffff16634ccde6886040518163ffffffff167c0100000000000000000000000000000000000000000000000000000000028152600401600060405180830381600087803b15156105d457600080fd5b6102c65a03f115156105e557600080fd5b505050565b6000821380156105fa5750600081115b80156106245750600081600360008660001916600019168152602001908152602001600020540310155b151561062f57600080fd5b80600360008560001916600019168152602001908152602001600020600082825403925050819055508060065401600681905550600560009054906101000a900473ffffffffffffffffffffffffffffffffffffffff1673ffffffffffffffffffffffffffffffffffffffff16636e643a9584846040518363ffffffff167c010000000000000000000000000000000000000000000000000000000002815260040180836000191660001916815260200182815260200192505050600060405180830381600087803b151561070357600080fd5b6102c65a03f1151561071457600080fd5b505050818360001916600160009054906101000a900473ffffffffffffffffffffffffffffffffffffffff1673ffffffffffffffffffffffffffffffffffffffff167f92a43145881c7241c6d24470e589ef4d2516e229af656614dc151e57360c488260405160405180910390a4505050565b61078f6109de565b6107976109f2565b61079f6109de565b6107a76109f2565b60006004805490506040518059106107bc5750595b908082528060200260200182016040525092506004805490506040518059106107e25750595b90808252806020026020018201604052509150600090505b6004805490508110156108a75760048181548110151561081657fe5b906000526020600020900154838281518110151561083057fe5b9060200190602002019060001916908160001916815250506003600060048381548110151561085b57fe5b9060005260206000209001546000191660001916815260200190815260200160002054828281518110151561088c57fe5b906020019060200201818152505080806001019150506107fa565b8282945094505050509091565b6000600360008360001916600019168152602001908152602001600020549050919050565b600160009054906101000a900473ffffffffffffffffffffffffffffffffffffffff1681565b3373ffffffffffffffffffffffffffffffffffffffff166000809054906101000a900473ffffffffffffffffffffffffffffffffffffffff1673ffffffffffffffffffffffffffffffffffffffff1614151561095a57600080fd5b60006003600083600019166000191681526020019081526020016000205414151561098457600080fd5b60025460036000836000191660001916815260200190815260200160002081905550600480548060010182816109ba9190610a06565b91600052602060002090016000839091909150906000191690555050565b60065481565b602060405190810160405280600081525090565b602060405190810160405280600081525090565b815481835581811511610a2d57818360005260206000209182019101610a2c9190610a32565b5b505050565b610a5491905b80821115610a50576000816000905550600101610a38565b5090565b905600a165627a7a7230582016a19956eca80b0cf3e4ecd7eedbcdd9956daf961a570167fe77b671655a96600029",
  "source": "pragma solidity ^0.4.15; \nimport \"./Bet.sol\";\ncontract Betting {\n    address private owner;\n    address public currentBet;\n    uint public initialBalance = 0;\n    mapping( bytes32 => uint) balance;\n    bytes32[] users;\n    Bet betContract;\n    uint public totalBet = 0;\n    \n    event LogWinner(address indexed _contractAddress, bytes32 indexed _winner);\n    event LogBet(address indexed _contractAddress, bytes32 indexed _username, int indexed _amount);\n\n    modifier onlyOwner() {\n        require( owner == msg.sender);\n        _;\n    }\n    \n    function Betting(uint _initialBalance) public {\n        owner = msg.sender;\n        initialBalance = _initialBalance;\n    }\n    \n    function newRound(address _addr) public onlyOwner {\n        currentBet = _addr;\n        betContract = Bet(_addr);\n        totalBet = 0;\n    }\n    \n    function register(bytes32 _username) public onlyOwner {\n        require( balance[_username] == 0);\n        balance[_username] = initialBalance;\n        users.push(_username);\n        \n    }\n    \n    function getBalance(bytes32 username) public constant returns(uint) {\n        return balance[username];\n    }\n    \n    function getLeaderboard() public constant returns(bytes32[], uint[]) {\n        bytes32[]  memory usernames =  new bytes32[](users.length);\n        uint[]  memory score =  new uint[](users.length);\n        for(uint i=0;i<users.length;i++) {\n            usernames[i]=users[i];\n            score[i] = balance[users[i]];\n        }\n        return (usernames, score);\n    }\n    \n    // Betting functions\n    function placeBet(bytes32 _username, int _amount, uint _coinsSpent) public  {\n        require(_amount > 0 && _coinsSpent > 0 && balance[_username] - _coinsSpent >= 0);\n        balance[_username] -= _coinsSpent;\n        totalBet = totalBet + _coinsSpent;\n        betContract.placeBet(_username, _amount);\n        LogBet(currentBet, _username, _amount);\n    }\n    \n    function declare() {\n        betContract.declare();\n    }\n\n    function resolve() {\n      bytes32  winner = betContract.resolve();\n      balance[winner] = balance[winner] + totalBet;\n      totalBet=0;\n      LogWinner(currentBet, winner);\n    }\n\n\n}\n\n",
  "sourcePath": "/home/subhod/workspace/ethereum/betting-contract/contracts/Betting.sol",
  "compiler": {
    "name": "solc",
    "version": "0.4.18+commit.9cf6e910.Emscripten.clang"
  },
  "schemaVersion": "1.0.1",
  "updatedAt": "2017-11-14T06:56:24.741Z"
}