{
  "contractName": "Betting",
  "abi": [
    {
      "constant": true,
      "inputs": [],
      "name": "initialBalance",
      "outputs": [
        {
          "name": "",
          "type": "uint256"
        }
      ],
      "payable": false,
      "stateMutability": "view",
      "type": "function"
    },
    {
      "constant": false,
      "inputs": [
        {
          "name": "_addr",
          "type": "address"
        }
      ],
      "name": "newRound",
      "outputs": [],
      "payable": false,
      "stateMutability": "nonpayable",
      "type": "function"
    },
    {
      "constant": false,
      "inputs": [],
      "name": "declare",
      "outputs": [],
      "payable": false,
      "stateMutability": "nonpayable",
      "type": "function"
    },
    {
      "constant": false,
      "inputs": [
        {
          "name": "_username",
          "type": "bytes32"
        },
        {
          "name": "_amount",
          "type": "int256"
        },
        {
          "name": "_coinsSpent",
          "type": "uint256"
        }
      ],
      "name": "placeBet",
      "outputs": [],
      "payable": false,
      "stateMutability": "nonpayable",
      "type": "function"
    },
    {
      "constant": true,
      "inputs": [],
      "name": "getLeaderboard",
      "outputs": [
        {
          "name": "",
          "type": "bytes32[]"
        },
        {
          "name": "",
          "type": "uint256[]"
        }
      ],
      "payable": false,
      "stateMutability": "view",
      "type": "function"
    },
    {
      "constant": true,
      "inputs": [
        {
          "name": "username",
          "type": "bytes32"
        }
      ],
      "name": "getBalance",
      "outputs": [
        {
          "name": "",
          "type": "uint256"
        }
      ],
      "payable": false,
      "stateMutability": "view",
      "type": "function"
    },
    {
      "constant": false,
      "inputs": [
        {
          "name": "_winner",
          "type": "bytes32"
        }
      ],
      "name": "sendWinningAmount",
      "outputs": [
        {
          "name": "",
          "type": "address"
        }
      ],
      "payable": false,
      "stateMutability": "nonpayable",
      "type": "function"
    },
    {
      "constant": true,
      "inputs": [
        {
          "name": "_username",
          "type": "bytes32"
        }
      ],
      "name": "currentBet",
      "outputs": [
        {
          "name": "",
          "type": "address"
        }
      ],
      "payable": false,
      "stateMutability": "view",
      "type": "function"
    },
    {
      "inputs": [
        {
          "name": "_username",
          "type": "bytes32"
        }
      ],
      "payable": false,
      "stateMutability": "nonpayable",
      "type": "function",
      "constant": false,
      "name": "register",
      "outputs": [
        {
          "name": "",
          "type": "uint256"
        }
      ]
    },
    {
      "inputs": [
        {
          "name": "_initialBalance",
          "type": "uint256"
        }
      ],
      "payable": false,
      "stateMutability": "view",
      "type": "function",
      "constant": true,
      "name": "totalBet",
      "outputs": [
        {
          "name": "",
          "type": "uint256"
        }
      ]
    },
    {
      "inputs": [
        {
          "name": "_initialBalance",
          "type": "uint256"
        }
      ],
      "payable": false,
      "stateMutability": "nonpayable",
      "type": "constructor"
    }
  ],
  "bytecode": "0x606060405260006002556000600655341561001957600080fd5b60405160208061095a83398101604052808051906020019091905050336000806101000a81548173ffffffffffffffffffffffffffffffffffffffff021916908373ffffffffffffffffffffffffffffffffffffffff16021790555080600281905550506108ce8061008c6000396000f3006060604052600436106100a4576000357c0100000000000000000000000000000000000000000000000000000000900463ffffffff16806318369a2a146100a957806342ad16d1146100d25780634ccde6881461010b578063598b5167146101205780636d763a6e146101595780638e7394611461020b578063c23dcdad14610246578063d504cb651461026d578063e1fa8e84146102c2578063fe5e1853146102e9575b600080fd5b34156100b457600080fd5b6100bc610312565b6040518082815260200191505060405180910390f35b34156100dd57600080fd5b610109600480803573ffffffffffffffffffffffffffffffffffffffff16906020019091905050610318565b005b341561011657600080fd5b61011e610400565b005b341561012b57600080fd5b61015760048080356000191690602001909190803590602001909190803590602001909190505061049b565b005b341561016457600080fd5b61016c610588565b604051808060200180602001838103835285818151815260200191508051906020019060200280838360005b838110156101b3578082015181840152602081019050610198565b50505050905001838103825284818151815260200191508051906020019060200280838360005b838110156101f55780820151818401526020810190506101da565b5050505090500194505050505060405180910390f35b341561021657600080fd5b6102306004808035600019169060200190919050506106b5565b6040518082815260200191505060405180910390f35b341561025157600080fd5b61026b6004808035600019169060200190919050506106da565b005b341561027857600080fd5b610280610724565b604051808273ffffffffffffffffffffffffffffffffffffffff1673ffffffffffffffffffffffffffffffffffffffff16815260200191505060405180910390f35b34156102cd57600080fd5b6102e760048080356000191690602001909190505061074a565b005b34156102f457600080fd5b6102fc610823565b6040518082815260200191505060405180910390f35b60025481565b3373ffffffffffffffffffffffffffffffffffffffff166000809054906101000a900473ffffffffffffffffffffffffffffffffffffffff1673ffffffffffffffffffffffffffffffffffffffff1614151561037357600080fd5b80600160006101000a81548173ffffffffffffffffffffffffffffffffffffffff021916908373ffffffffffffffffffffffffffffffffffffffff16021790555080600560006101000a81548173ffffffffffffffffffffffffffffffffffffffff021916908373ffffffffffffffffffffffffffffffffffffffff160217905550600060068190555050565b600560009054906101000a900473ffffffffffffffffffffffffffffffffffffffff1673ffffffffffffffffffffffffffffffffffffffff16634ccde6886040518163ffffffff167c0100000000000000000000000000000000000000000000000000000000028152600401600060405180830381600087803b151561048557600080fd5b6102c65a03f1151561049657600080fd5b505050565b80600360008560001916600019168152602001908152602001600020600082825403925050819055508060065401600681905550600560009054906101000a900473ffffffffffffffffffffffffffffffffffffffff1673ffffffffffffffffffffffffffffffffffffffff16636e643a9584846040518363ffffffff167c010000000000000000000000000000000000000000000000000000000002815260040180836000191660001916815260200182815260200192505050600060405180830381600087803b151561056f57600080fd5b6102c65a03f1151561058057600080fd5b505050505050565b610590610829565b61059861083d565b6105a0610829565b6105a861083d565b60006004805490506040518059106105bd5750595b908082528060200260200182016040525092506004805490506040518059106105e35750595b90808252806020026020018201604052509150600090505b6004805490508110156106a85760048181548110151561061757fe5b906000526020600020900154838281518110151561063157fe5b9060200190602002019060001916908160001916815250506003600060048381548110151561065c57fe5b9060005260206000209001546000191660001916815260200190815260200160002054828281518110151561068d57fe5b906020019060200201818152505080806001019150506105fb565b8282945094505050509091565b6000600360008360001916600019168152602001908152602001600020549050919050565b600654600360008360001916600019168152602001908152602001600020540160036000836000191660001916815260200190815260200160002081905550600060068190555050565b600160009054906101000a900473ffffffffffffffffffffffffffffffffffffffff1681565b3373ffffffffffffffffffffffffffffffffffffffff166000809054906101000a900473ffffffffffffffffffffffffffffffffffffffff1673ffffffffffffffffffffffffffffffffffffffff161415156107a557600080fd5b6000600360008360001916600019168152602001908152602001600020541415156107cf57600080fd5b60025460036000836000191660001916815260200190815260200160002081905550600480548060010182816108059190610851565b91600052602060002090016000839091909150906000191690555050565b60065481565b602060405190810160405280600081525090565b602060405190810160405280600081525090565b81548183558181151161087857818360005260206000209182019101610877919061087d565b5b505050565b61089f91905b8082111561089b576000816000905550600101610883565b5090565b905600a165627a7a723058209cfe666b965087428cc2e3462aa50e19830cfc7ca551123c562f006eb78c772b0029",
  "source": "pragma solidity ^0.4.15; \nimport \"./Bet.sol\";\ncontract Betting {\n    address private owner;\n    address public currentBet;\n    uint public initialBalance = 0;\n    mapping( bytes32 => uint) balance;\n    bytes32[] users;\n    Bet betContract;\n    uint public totalBet = 0;\n    \n    modifier onlyOwner() {\n        require( owner == msg.sender);\n        _;\n    }\n    \n    function Betting(uint _initialBalance) public {\n        owner = msg.sender;\n        initialBalance = _initialBalance;\n    }\n    \n    function newRound(address _addr) public onlyOwner {\n        currentBet = _addr;\n        betContract = Bet(_addr);\n        totalBet = 0;\n    }\n    \n    function register(bytes32 _username) public onlyOwner {\n        require( balance[_username] == 0);\n        balance[_username] = initialBalance;\n        users.push(_username);\n        \n    }\n    \n    function getBalance(bytes32 username) public constant returns(uint) {\n        return balance[username];\n    }\n    \n    function getLeaderboard() public constant returns(bytes32[], uint[]) {\n        bytes32[]  memory usernames =  new bytes32[](users.length);\n        uint[]  memory score =  new uint[](users.length);\n        for(uint i=0;i<users.length;i++) {\n            usernames[i]=users[i];\n            score[i] = balance[users[i]];\n        }\n        return (usernames, score);\n    }\n    \n    // Betting functions\n    function placeBet(bytes32 _username, int _amount, uint _coinsSpent) public  {\n        // require(_amount > 0 && _coinsSpent > 0 && balance[_username] - _coinsSpent >= 0);\n        balance[_username] -= _coinsSpent;\n        totalBet = totalBet + _coinsSpent;\n        betContract.placeBet(_username, _amount);\n    }\n    \n    function declare()  {\n        betContract.declare();\n    }\n\n    function sendWinningAmount(bytes32 _winner) public {\n        balance[_winner] = balance[_winner] + totalBet;\n        totalBet=0;\n    }\n\n}\n\n",
  "sourcePath": "/home/subhod/workspace/ethereum/betting-contract/contracts/Betting.sol",
  "compiler": {
    "name": "solc",
    "version": "0.4.18+commit.9cf6e910.Emscripten.clang"
  },
  "schemaVersion": "1.0.1",
  "updatedAt": "2017-11-09T07:12:47.904Z"
}