{
  "contractName": "Betting",
  "abi": [
    {
      "constant": true,
      "inputs": [],
      "name": "initialBalance",
      "outputs": [
        {
          "name": "",
          "type": "uint256"
        }
      ],
      "payable": false,
      "stateMutability": "view",
      "type": "function"
    },
    {
      "constant": false,
      "inputs": [],
      "name": "resolve",
      "outputs": [],
      "payable": false,
      "stateMutability": "nonpayable",
      "type": "function"
    },
    {
      "constant": false,
      "inputs": [
        {
          "name": "_addr",
          "type": "address"
        }
      ],
      "name": "newRound",
      "outputs": [],
      "payable": false,
      "stateMutability": "nonpayable",
      "type": "function"
    },
    {
      "constant": false,
      "inputs": [],
      "name": "declare",
      "outputs": [],
      "payable": false,
      "stateMutability": "nonpayable",
      "type": "function"
    },
    {
      "constant": false,
      "inputs": [
        {
          "name": "_username",
          "type": "bytes32"
        },
        {
          "name": "_amount",
          "type": "int256"
        },
        {
          "name": "_coinsSpent",
          "type": "uint256"
        }
      ],
      "name": "placeBet",
      "outputs": [],
      "payable": false,
      "stateMutability": "nonpayable",
      "type": "function"
    },
    {
      "constant": true,
      "inputs": [],
      "name": "getLeaderboard",
      "outputs": [
        {
          "name": "",
          "type": "bytes32[]"
        },
        {
          "name": "",
          "type": "uint256[]"
        }
      ],
      "payable": false,
      "stateMutability": "view",
      "type": "function"
    },
    {
      "constant": true,
      "inputs": [
        {
          "name": "username",
          "type": "bytes32"
        }
      ],
      "name": "getBalance",
      "outputs": [
        {
          "name": "",
          "type": "uint256"
        }
      ],
      "payable": false,
      "stateMutability": "view",
      "type": "function"
    },
    {
      "constant": true,
      "inputs": [],
      "name": "currentBet",
      "outputs": [
        {
          "name": "",
          "type": "address"
        }
      ],
      "payable": false,
      "stateMutability": "view",
      "type": "function"
    },
    {
      "constant": false,
      "inputs": [
        {
          "name": "_username",
          "type": "bytes32"
        }
      ],
      "name": "register",
      "outputs": [],
      "payable": false,
      "stateMutability": "nonpayable",
      "type": "function"
    },
    {
      "constant": true,
      "inputs": [],
      "name": "totalBet",
      "outputs": [
        {
          "name": "",
          "type": "uint256"
        }
      ],
      "payable": false,
      "stateMutability": "view",
      "type": "function"
    },
    {
      "inputs": [
        {
          "name": "_initialBalance",
          "type": "uint256"
        }
      ],
      "payable": false,
      "stateMutability": "nonpayable",
      "type": "constructor"
    },
    {
      "anonymous": false,
      "inputs": [
        {
          "indexed": true,
          "name": "_contractAddress",
          "type": "address"
        },
        {
          "indexed": true,
          "name": "_winner",
          "type": "bytes32"
        }
      ],
      "name": "LogWinner",
      "type": "event"
    }
  ],
  "bytecode": "0x606060405260006002556000600655341561001957600080fd5b604051602080610a5f83398101604052808051906020019091905050336000806101000a81548173ffffffffffffffffffffffffffffffffffffffff021916908373ffffffffffffffffffffffffffffffffffffffff16021790555080600281905550506109d38061008c6000396000f3006060604052600436106100a4576000357c0100000000000000000000000000000000000000000000000000000000900463ffffffff16806318369a2a146100a95780632810e1d6146100d257806342ad16d1146100e75780634ccde68814610120578063598b5167146101355780636d763a6e1461016e5780638e73946114610220578063d504cb651461025b578063e1fa8e84146102b0578063fe5e1853146102d7575b600080fd5b34156100b457600080fd5b6100bc610300565b6040518082815260200191505060405180910390f35b34156100dd57600080fd5b6100e5610306565b005b34156100f257600080fd5b61011e600480803573ffffffffffffffffffffffffffffffffffffffff16906020019091905050610467565b005b341561012b57600080fd5b61013361054f565b005b341561014057600080fd5b61016c6004808035600019169060200190919080359060200190919080359060200190919050506105ea565b005b341561017957600080fd5b6101816106d7565b604051808060200180602001838103835285818151815260200191508051906020019060200280838360005b838110156101c85780820151818401526020810190506101ad565b50505050905001838103825284818151815260200191508051906020019060200280838360005b8381101561020a5780820151818401526020810190506101ef565b5050505090500194505050505060405180910390f35b341561022b57600080fd5b610245600480803560001916906020019091905050610804565b6040518082815260200191505060405180910390f35b341561026657600080fd5b61026e610829565b604051808273ffffffffffffffffffffffffffffffffffffffff1673ffffffffffffffffffffffffffffffffffffffff16815260200191505060405180910390f35b34156102bb57600080fd5b6102d560048080356000191690602001909190505061084f565b005b34156102e257600080fd5b6102ea610928565b6040518082815260200191505060405180910390f35b60025481565b6000600560009054906101000a900473ffffffffffffffffffffffffffffffffffffffff1673ffffffffffffffffffffffffffffffffffffffff16632810e1d66000604051602001526040518163ffffffff167c0100000000000000000000000000000000000000000000000000000000028152600401602060405180830381600087803b151561039657600080fd5b6102c65a03f115156103a757600080fd5b50505060405180519050905060065460036000836000191660001916815260200190815260200160002054016003600083600019166000191681526020019081526020016000208190555060006006819055508060001916600160009054906101000a900473ffffffffffffffffffffffffffffffffffffffff1673ffffffffffffffffffffffffffffffffffffffff167fd187ce82df032d5ffc5c7990fe887af2f29e753c0ddce448f9034e7e8232065a60405160405180910390a350565b3373ffffffffffffffffffffffffffffffffffffffff166000809054906101000a900473ffffffffffffffffffffffffffffffffffffffff1673ffffffffffffffffffffffffffffffffffffffff161415156104c257600080fd5b80600160006101000a81548173ffffffffffffffffffffffffffffffffffffffff021916908373ffffffffffffffffffffffffffffffffffffffff16021790555080600560006101000a81548173ffffffffffffffffffffffffffffffffffffffff021916908373ffffffffffffffffffffffffffffffffffffffff160217905550600060068190555050565b600560009054906101000a900473ffffffffffffffffffffffffffffffffffffffff1673ffffffffffffffffffffffffffffffffffffffff16634ccde6886040518163ffffffff167c0100000000000000000000000000000000000000000000000000000000028152600401600060405180830381600087803b15156105d457600080fd5b6102c65a03f115156105e557600080fd5b505050565b80600360008560001916600019168152602001908152602001600020600082825403925050819055508060065401600681905550600560009054906101000a900473ffffffffffffffffffffffffffffffffffffffff1673ffffffffffffffffffffffffffffffffffffffff16636e643a9584846040518363ffffffff167c010000000000000000000000000000000000000000000000000000000002815260040180836000191660001916815260200182815260200192505050600060405180830381600087803b15156106be57600080fd5b6102c65a03f115156106cf57600080fd5b505050505050565b6106df61092e565b6106e7610942565b6106ef61092e565b6106f7610942565b600060048054905060405180591061070c5750595b908082528060200260200182016040525092506004805490506040518059106107325750595b90808252806020026020018201604052509150600090505b6004805490508110156107f75760048181548110151561076657fe5b906000526020600020900154838281518110151561078057fe5b906020019060200201906000191690816000191681525050600360006004838154811015156107ab57fe5b906000526020600020900154600019166000191681526020019081526020016000205482828151811015156107dc57fe5b9060200190602002018181525050808060010191505061074a565b8282945094505050509091565b6000600360008360001916600019168152602001908152602001600020549050919050565b600160009054906101000a900473ffffffffffffffffffffffffffffffffffffffff1681565b3373ffffffffffffffffffffffffffffffffffffffff166000809054906101000a900473ffffffffffffffffffffffffffffffffffffffff1673ffffffffffffffffffffffffffffffffffffffff161415156108aa57600080fd5b6000600360008360001916600019168152602001908152602001600020541415156108d457600080fd5b600254600360008360001916600019168152602001908152602001600020819055506004805480600101828161090a9190610956565b91600052602060002090016000839091909150906000191690555050565b60065481565b602060405190810160405280600081525090565b602060405190810160405280600081525090565b81548183558181151161097d5781836000526020600020918201910161097c9190610982565b5b505050565b6109a491905b808211156109a0576000816000905550600101610988565b5090565b905600a165627a7a72305820fec1eee682cee02f8746230545d14f5031e1441c4c3d5a42eb721c1659ebf7970029",
  "source": "pragma solidity ^0.4.15; \nimport \"./Bet.sol\";\ncontract Betting {\n    address private owner;\n    address public currentBet;\n    uint public initialBalance = 0;\n    mapping( bytes32 => uint) balance;\n    bytes32[] users;\n    Bet betContract;\n    uint public totalBet = 0;\n    \n    event LogWinner(address indexed _contractAddress, bytes32 indexed _winner);\n\n    modifier onlyOwner() {\n        require( owner == msg.sender);\n        _;\n    }\n    \n    function Betting(uint _initialBalance) public {\n        owner = msg.sender;\n        initialBalance = _initialBalance;\n    }\n    \n    function newRound(address _addr) public onlyOwner {\n        currentBet = _addr;\n        betContract = Bet(_addr);\n        totalBet = 0;\n    }\n    \n    function register(bytes32 _username) public onlyOwner {\n        require( balance[_username] == 0);\n        balance[_username] = initialBalance;\n        users.push(_username);\n        \n    }\n    \n    function getBalance(bytes32 username) public constant returns(uint) {\n        return balance[username];\n    }\n    \n    function getLeaderboard() public constant returns(bytes32[], uint[]) {\n        bytes32[]  memory usernames =  new bytes32[](users.length);\n        uint[]  memory score =  new uint[](users.length);\n        for(uint i=0;i<users.length;i++) {\n            usernames[i]=users[i];\n            score[i] = balance[users[i]];\n        }\n        return (usernames, score);\n    }\n    \n    // Betting functions\n    function placeBet(bytes32 _username, int _amount, uint _coinsSpent) public  {\n        // require(_amount > 0 && _coinsSpent > 0 && balance[_username] - _coinsSpent >= 0);\n        balance[_username] -= _coinsSpent;\n        totalBet = totalBet + _coinsSpent;\n        betContract.placeBet(_username, _amount);\n    }\n    \n    function declare() {\n        betContract.declare();\n    }\n\n    function resolve() {\n      bytes32  winner = betContract.resolve();\n      balance[winner] = balance[winner] + totalBet;\n      totalBet=0;\n      LogWinner(currentBet, winner);\n    }\n\n\n}\n\n",
  "sourcePath": "/home/subhod/workspace/ethereum/betting-contract/contracts/Betting.sol",
  "compiler": {
    "name": "solc",
    "version": "0.4.18+commit.9cf6e910.Emscripten.clang"
  },
  "schemaVersion": "1.0.1",
  "updatedAt": "2017-11-09T10:54:09.942Z"
}